:020000040800F2
:1000000000000220612F0008D9210008DB21000830
:10001000DD210008DF210008E121000800000000C8
:10002000000000000000000000000000E3210008C4
:10003000E521000800000000E7210008E921000890
:10004000B12F0008B12F0008B12F0008B12F000810
:10005000B12F0008B12F0008B12F0008B12F000800
:10006000B12F0008B12F0008B12F0008B12F0008F0
:10007000B12F0008B12F0008B12F0008B12F0008E0
:10008000B12F0008B12F0008B12F0008B12F0008D0
:10009000B12F0008B12F0008B12F0008B12F0008C0
:1000A000B12F0008B12F0008B12F0008B12F0008B0
:1000B000B12F0008B12F0008B12F0008B12F0008A0
:1000C000B12F0008B12F0008B12F0008B12F000890
:1000D000B12F0008B12F0008B12F0008B12F000880
:1000E000B12F0008B12F0008B12F0008B12F000870
:1000F000B12F0008B12F0008B12F0008B12F000860
:10010000B12F0008B12F0008B12F0008B12F00084F
:10011000B12F0008B12F0008B12F0008B12F00083F
:10012000B12F0008B12F0008B12F0008B12F00082F
:10013000B12F0008B12F0008B12F0008B12F00081F
:10014000B12F0008B12F0008B12F0008B12F00080F
:10015000B12F0008B12F0008B12F0008B12F0008FF
:10016000B12F0008B12F0008B12F0008B12F0008EF
:10017000B12F0008B12F0008B12F000800000000C7
:08018000B12F0008B12F0008A7
:100190000348044B834202D0034B03B11847704716
:1001A0006800002068000020000000000548064BA1
:1001B0001B1AD90F01EBA301491002D0034B03B165
:1001C0001847704768000020680000200000000009
:1001D00010B5064C237843B9FFF7DAFF044B13B18F
:1001E0000448AFF300800123237010BD6800002095
:1001F00000000000B42F000808B5044B1BB10449EF
:100200000448AFF30080BDE80840CFE700000000DD
:100210006C000020B42F000870B50F4B0F4DAB429F
:10022000A3EB050607D0B610002455F8043B0134B3
:100230009847A642F9D802F0BDFE094D094B5E1B56
:10024000AB424FEAA60606D0002455F8043B013421
:100250009847A642F9D870BD4830000848300008D9
:10026000483000084C300008036A2DE9F0418468EA
:1002700080460E46002B3BD0A3891B0717D5236968
:10028000ABB1013EA36816F8015F013BA360EDB17D
:10029000002B07DAA7699F4222462946404610DC18
:1002A0000A2D0ED023685A1C22601D70EAE72146F1
:1002B000404600F085FB0028E3D04FF0FF30BDE85A
:1002C000F08100F02DFE0130DCD1F6E7002B09DAD9
:1002D00022460A21404600F023FE0130EDD00A20DC
:1002E000BDE8F08123680A22591C21601A70F6E7E4
:1002F00000F0F4F8C0E700BF024B01461868FFF7B2
:10030000B3BF00BF0C00002000207047024A034921
:10031000034800F033BB00BF00000020F5060008D2
:10032000100000200C4B4168994210B5044601D0E2
:1003300000F0E0F9A168094B994202D0204600F094
:10034000D9F9E168064B994204D02046BDE8104037
:1003500000F0D0B910BD00BF84000020EC000020E8
:1003600054010020002070472DE9F8432A4C2B4906
:10037000DFF8BC90DFF8BC80294FC4F838110025A5
:1003800004230822294604F15C00264EE360C4E9F8
:100390000055C4E90455A5606566A56100F0C6F87E
:1003A000214B63670822294604F1C400C4E90849C7
:1003B000C4E90A87C4E91A55C4E91E552567C4F87B
:1003C000CC50C4F88050266300F0B0F8174BC4F846
:1003D000DC30294604F16803082204F59670C4F85D
:1003E0008830C4E92398C4E92576C4E93455C4E9C2
:1003F0003855C4F8D850C4F83451C4F8E85000F067
:1004000095F804F1D003C4E93D98C4E93F76C4F8F7
:10041000F030BDE8F88300BF840000200D03000821
:100420004D100008711000080900010012000200C0
:10043000E50F00080D100008F8B5254BD3F838314A
:100440000646002B3CD0234FD7E90134013B04D5AD
:100450001DE05A1C04F1680419D0B4F90C50013B9A
:10046000002DF6D11C4BE360C4E90155C4E90455E5
:1004700065662560A5610822294604F15C0000F04C
:1004800055F8C4E90D55C4E912552046F8BD3D683C
:100490000DB12F46D8E74FF4D671304600F090F9F1
:1004A000044680B10423C0E900530C302946A06003
:1004B0004FF4D072254600F039F83C602F46C3E770
:1004C000FFF752FFBFE70C2338603360DDE700BF62
:1004D00084000020000000200100FFFF036A03B138
:1004E0007047044B044AD3F838310262002BF7D12D
:1004F0003AE700BF8400002025030008704700BFD2
:10050000704700BF024A0349002000F037BA00BF1D
:100510000000002009030008024A0349002000F0FF
:100520002DBA00BF0000002065030008830730B526
:1005300047D0541E002A3ED0CAB2034601E0013C17
:1005400039D303F8012B9D07F9D1032C2CD9CDB257
:1005500005EB05250F2C05EB054535D9A4F1100257
:1005600022F00F0C03F1100EE6444FEA121C1A465B
:10057000C2E90055C2E9025510327245F8D10CF1BA
:10058000010214F00C0F03EB021204F00F0C13D055
:10059000ACF1040323F003030433134442F8045B77
:1005A0009342FBD10CF003042CB1C9B21C4403F8F4
:1005B000011BA342FBD130BD64461346002CF4D18D
:1005C000F9E703461446C0E71A46A446E0E700BF31
:1005D000B1F90C302DE9F0411E070C4680463DD4A0
:1005E0004A68002A56DDE56A002D34D00022D8F88A
:1005F0000060C8F8002013F48052216A57D101230B
:100600004046A847451C024666D0B4F90C30E56A5E
:10061000216A580705D56368D21A636B0BB1236C46
:10062000D21A00234046A847431C42D000236360EF
:1006300023692360A389DF0400D56065616BC8F876
:10064000006041B104F14403994202D0404600F0F9
:1006500037F9002363630020BDE8F0810E69002EA6
:10066000F9D09B070D6808BF4B690E6018BF0023C7
:10067000AD1B8B600BE02B463246216AA76A4046D1
:10068000B847B0F1000CA5EB0C05664406DD002D63
:10069000F1DCE0E70A6C002AA5DCDCE7B4F90C30F9
:1006A00043F04003A3814FF0FF30BDE8F081626D5D
:1006B000AFE7D8F80010B4F90C301D29F0D80C4A77
:1006C000CA40D507ECD52269226000226260DA04B4
:1006D000B4D50029B1D0B1E7D8F80030002B94D0C0
:1006E0001D2B01D0162BD9D1C8F80060B3E700BF8D
:1006F000010040200B69B3B110B5044682B008B1C7
:10070000036A5BB1B1F90C3013B9002002B010BD1F
:10071000204602B0BDE81040FFF75ABF0191FFF735
:10072000DDFE0199EEE70020704700BFB8B138B593
:100730000D4A0369156804462BB10DB12B6A53B1FC
:10074000B4F90C300BB9002038BD21462846BDE86D
:100750003840FFF73DBF2846FFF7C0FEF0E7034AE9
:100760000349044800F00AB90C00002000000020F2
:10077000F50600081000002070B5104E33680546DD
:100780000C46B3B12146284600F01AFC431C0CD09D
:10079000C41C24F00304A04205D0211A284600F00E
:1007A0000FFC013001D0204670BD4FF0FF342046D1
:1007B00070BD194600F004FC3060E3E7C001002082
:1007C0002DE9F843CD1C25F0030508350C2D38BF65
:1007D0000C25002D064618DBA94216D8DFF8DC8070
:1007E00000F050F9D8F80420A2B1144603E0636881
:1007F00022467BB11C4623685B1BF8D40B2B1FD809
:100800009442636854D053600CE00C2333600020A2
:10081000BDE8F88329463046FFF7AEFF431C044687
:1008200019D00560304600F02FF904F10B00231DAC
:1008300020F00700C21A1CBF1B1AA350BDE8F883A2
:1008400061199442256014BF5160C8F804106351C7
:1008500063684B60E6E7D8F804701FB33C467F68D6
:10086000002FFBD123683946304604EB030900F022
:10087000A7FB814516D12368ED1A29463046FFF7BC
:100880007BFF01300ED02368D8F804202B4423606E
:10089000536883B1A34203D01A465B689C42FBD1E4
:1008A0000023B0E70C233360304600F0EDF8AEE7EC
:1008B000C8F80430B6E7C8F80470B3E7C0010020F8
:1008C000002950D038B551F8043C0C1F002BB8BF9C
:1008D000E418054600F0D6F8274A13682BB1A34266
:1008E0000CD92168601883422CD0636028461460BC
:1008F000BDE8384000F0C8B8A3420FD81A465B687C
:10090000002BF9D111685018844217D02CD36360A2
:1009100054602846BDE8384000F0B6B81168501859
:10092000A04214D020D8216860188342EFD1186803
:100930005B680844C4E900035460EAE723680B4499
:100940001360E6E718685B6808442060CDE720681C
:100950000144501883421160DBD1D3E90004014403
:10096000C2E90014D5E770470C232B602846BDE888
:10097000384000F089B800BFC40100202DE9F843D9
:100980000746884616464FF00009D6E90154013D56
:1009900010D4A389012B08D9B4F90E3001332146B4
:1009A000384602D0C04749EA0009013D6B1C04F1FA
:1009B0006804EED13668002EE7D14846BDE8F883DA
:1009C00038B52F4B1B6805460C4613B11A6A002A2E
:1009D0004BD0B4F90C3018071CD5226922B313F0A0
:1009E000010107D0616900204942A060A1613AB1CC
:1009F000002038BD980758BF6169A160002AF7D16F
:100A0000190658BF1046F4D543F04003A3814FF0B8
:100A1000FF3038BDD9062CD55A0712D4226943F0CD
:100A20000803A381002ADAD103F42071B1F5007F15
:100A3000D5D02146284600F029F8B4F90C302269B7
:100A4000CDE7616B51B104F14402914204D02846D4
:100A5000FFF736FFB4F90C300022626322690021EF
:100A6000C4E9002123F02403D9E71846FFF736FD37
:100A7000AFE7092243F040032A60A381C7E700BF24
:100A80000C000020704700BF704700BF70B5B1F97F
:100A90000C300C46990796B007D504F147030122A4
:100AA000C4E90432236016B070BDB4F90E100029F9
:100AB000054629DB6A4600F0F9FF002822DB4FF4E7
:100AC00080612846019EFFF77BFE88B3A3892060E2
:100AD00043F0800306F47046A381B6F5005F4FF43F
:100AE0008063C4E90403DED1B4F90E10284600F097
:100AF0007BF80028D7D0A38923F0030343F0010338
:100B0000A381D0E7B4F90C3013F0800F14BF402656
:100B10004FF4806631462846FFF752FE40B1A38964
:100B2000206043F08003C4E90406A38116B070BDC1
:100B3000B4F90C309A05B6D423F0030304F147024C
:100B400043F002030121C4E90421A3812260AAE742
:100B500070B50C46B1F90E10002996B015461E4628
:100B60000FDB6A4600F0A2FF00280ADB019B03F4BA
:100B70007043A3F50053B3FA83F34FF480625B092B
:100B800008E0A28912F0800F4FF0000314BF40224A
:100B90004FF48062002033602A6016B070BD00BF41
:100BA0000EB400B582B003AB816853F8042B0193F7
:100BB00000F072F802B05DF804EB03B0704700BFBC
:100BC0000FB400B5074983B004AB086853F8042B91
:100BD0008168019300F060F803B05DF804EB04B0A5
:100BE000704700BF0C00002038B5074D00220446B6
:100BF00008462A6000F0B4FF431C00D038BD2B68C3
:100C0000002BFBD0236038BDC80100209368013B56
:100C1000002B936011DA10B49469A34209DB0A290E
:100C200007D01368581C1060197008465DF8044B13
:100C300070475DF8044B00F073B91368581C1060DE
:100C400019700846704700BF9BB1F8B513440646BB
:100C50000F46541E5D1E01E0AC4208D014F8011F7F
:100C60003A463046FFF7D2FF431CF5D1F8BD0020CD
:100C7000F8BD0020704700BF936810B514461BB93B
:100C800018460023636010BD00F0F6F90023A3604E
:100C90000023636010BD00BF2DE9F04FA1B08B466B
:100CA00091461C46049018B1036A002B00F01C8189
:100CB000BBF80C30180740F19580DBF81030002BA2
:100CC00000F090800023CA460D9343F22003ADF854
:100CD00039309AF80030864E07940127002B79D0DE
:100CE000D14604E019F8013F002B00F08580252B48
:100CF000F8D1B9EB0A0840F0828099F80030002B57
:100D000068D000234FF0FF32CDE9092309F1010932
:100D100008930B938DF863301E9305E0089A07FA49
:100D200003F31A430892A1464C46052214F8011B0E
:100D3000304600F0B5FBA246831B0028EED1089B8D
:100D4000D90644BF20228DF8632099F800101A07B5
:100D500044BF2B228DF863202A2966D1079A116897
:100D6000043200290792C0F29A800B9199F8011081
:100D70002E2970D05F4C0322204600F091FB38B141
:100D8000089B001B4022824013430AF1010A08938A
:100D90001AF8011B58488DF83810062200F080FB25
:100DA000002800F08280554B002B69D007AA0092E2
:100DB000534B04985A4608A9AFF300800390039B55
:100DC000013307D00D9B039A13440D939AF800301A
:100DD000002B85D1BBF80C305B060AD40D9821B0EE
:100DE000BDE8F08F04985946FFF7EAFD00283FF46C
:100DF00069AF4FF0FF30F2E7B9EB0A08EAD00AF129
:100E0000FF35CDF81490A946049D01E0A0453ED9D8
:100E10004C465A4619F8011F2846FFF7F7FE0234E0
:100E20000130A4EB0A04F1D1D4E7A1F13002092A80
:100E300088BFCA469CD80B9B00E00134217803EBA5
:100E4000830302EB4303A1F13002092AF5D92E29CD
:100E50000B93A2468ED19AF801102A292FD1079B15
:100E60009AF802101A6809920433002A0AF1020063
:100E70000793B8BF4FF0FF338246B8BF099379E7B5
:100E8000079B073323F00703083307939AE70D996D
:100E9000DDF81490414499F800300D912FE7494254
:100EA00043F002030B91089360E707AA0092144BEA
:100EB00004985A4608A900F0B7FC03907FE7A1F117
:100EC00030020023092A09930AF1010A3FF652AFC2
:100ED0001AF8011F03EB830302EB4303A1F1300275
:100EE000092AF5D9099345E7FFF7F8FAE0E600BFCC
:100EF000EC2F0008F42F0008F82F00080000000075
:100F0000490C000810B4054C8446134620685DF86F
:100F1000044B0A466146FFF7BFBE00BF0C0000202D
:100F2000F8B50D461446064610B1036A002B37D0BB
:100F3000A389A269A2601A0719D52369BBB12268E7
:100F40006169D31AEDB299422F4620DD0133A168C1
:100F50000139A160511C2160157062699A420DD05F
:100F6000A389DB0701D50A2D08D03846F8BD2146F4
:100F70003046FFF725FD38B92369E0E721463046C2
:100F8000FFF7B8FB0028F0D04FF0FF37EDE7214620
:100F90003046FFF7AFFB0028F6D122680123D6E7E1
:100FA000FFF79CFAC4E700BF10B4044C03460A469E
:100FB00020685DF8044B1946FFF7B2BF0C00002013
:100FC00038B5074D0022044608462A6000F0E0FDCF
:100FD000431C00D038BD2B68002BFBD0236038BDEC
:100FE000C801002010B50C46B1F90E1000F042FB0C
:100FF000002803DB636D0344636510BDA38923F4FC
:101000008053A38110BD00BF002070472DE9F0413F
:101010000C46B1F90C101F46CB05054616460BD4FD
:1010200021F48051A1813B46B4F90E103246284686
:10103000BDE8F04100F066BDB4F90E1002230022B5
:1010400000F04AFDB4F90C10EAE700BF10B50C46F9
:10105000B1F90E1000F040FDB4F90C30421C0EBF87
:1010600023F4805343F480536065A38110BD00BF17
:10107000B1F90E1000F080B99368002B00F0F880F1
:101080002DE9F04FB1F90CC01CF0080F83B0904669
:1010900081460C4631D00B697BB31CF00207D8F8AF
:1010A000006038D00027D4F828B0216ADFF8C4A245
:1010B0003D4655452B463A4628BF53464846C5B19E
:1010C000D847002840F3CA80D8F808301B1A0744D4
:1010D0002D1AC8F80830002B00F0B68055452B4675
:1010E000D4F828B0216A28BF53463A464846002D16
:1010F000E6D1D6E900750836DBE721464846FFF71A
:101100005FFC002840F0AF80B4F90CC0D8F8006054
:101110001CF00207C6D11CF0010A63D12368A16844
:10112000574618468B46002F58D01CF4007F00F01D
:10113000B580B9420A4600F2E1801CF4906F2FD0CE
:10114000216962695D1A02EB420202EBD2726B1CEA
:1011500052103B44934292BF93469B461A461CF45E
:10116000806F00F0EA8011464846FFF729FB00280F
:1011700000F0F9802A462169009000F0E1F9A28987
:10118000009B22F4906242F08002A2815819ABEBDE
:101190000505C4F814B02361A5602060BB463A463B
:1011A0005146009200F0FAF8A1682368009AA1EB7A
:1011B0000B011A443D46A16022600027D8F8083090
:1011C0005B1BAA44C8F80830002B3DD02368A168F7
:1011D000B4F90CC018468B46002FA6D1D6E900A75B
:1011E00008369EE73846BB463D460097002D41D065
:1011F000002846D0009A2068A168D4E90473AA4266
:1012000028BF2A46B84204D901EB030A524500F32D
:101210008580934275DC216AA76A5A464846B847DA
:10122000B0F1000A1ADD009BB3EB0A0300930FD064
:101230000120D8F80830A3EB0A03D344A5EB0A0534
:10124000C8F80830002BD1D1002003B0BDE8F08FE2
:1012500021464846FFF74EFA0028EAD0B4F90C3090
:1012600043F04003A3814FF0FF3003B0BDE8F08F9F
:1012700000207047756833460836002DFAD0D3F841
:1012800000B02A460A21584600F00AF9002867D023
:101290000130A0EB0B0300931A46ACE722699A4297
:1012A00014D36269BA4211D86FF00043BB4228BF21
:1012B0003B46A56A93FBF2F3216A02FB03F348461F
:1012C0005246A847051EC9DD7F1B77E7B94228BFF4
:1012D00039460D4618460A46514600F05FF8A168A7
:1012E0002368491B2B44A16023600029ECD12146CF
:1012F0004846FFF7FFF90028E6D0AFE7BB463A467D
:101300004EE75946019200F049F8019AA3689B1AEA
:10131000A360236813442360924684E759465246EB
:1013200000F03CF823685344236021464846FFF709
:10133000E1F900283FF477AF90E7484600F0B0F9B4
:10134000034600287FF422AF21694846FFF7B8FA28
:10135000B4F90C300C22C9F8002023F080037FE799
:101360006A1C009247E70C22B4F90C30C9F800203F
:1013700076E700BF00FCFF7F38B5074D002204462A
:1013800008462A6000F0DCFB431C00D038BD2B6807
:10139000002BFBD0236038BDC801002088420ED945
:1013A0008B1883420BD900EB020C002A6ED06246E8
:1013B00013F801CD02F801CD9942F9D170470F2AF7
:1013C0000FD8034602F1FF3C002A5FD00CF1010C5C
:1013D000013B8C4411F8012B03F8012F6145F9D131
:1013E000704740EA01039B0751D1A2F1100370B589
:1013F00001F1200C23F00F0501F1100E00F1100493
:10140000AC441B095EF8105C44F8105C5EF80C5CA0
:1014100044F80C5C5EF8085C44F8085C5EF8045C18
:1014200044F8045C0EF1100EE64504F11004E9D115
:10143000013312F00C0F01EB031102F00F0400EB6B
:10144000031328D0043C24F003064FEA940C1E44F6
:101450001C1F8E465EF8045B44F8045FB442F9D169
:101460000CF1010402F0030203EB840301EB84019D
:1014700002F1FF3C4AB10CF1010C013B8C4411F824
:10148000012B03F8012F6145F9D170BD704702F1BE
:10149000FF3C03469AE72246EAE700BF000000004F
:1014A00001F0FF01102A2BDB10F0070F08D010F815
:1014B000013B013A8B422DD010F0070F42B3F6D119
:1014C000F0B441EA012141EA014122F007047FF032
:1014D00000070023F0E80256083C85EA010586EA89
:1014E000010685FA47F5A3FA87F586FA47F6A5FAC5
:1014F00087F68EB9EED1F0BC01F0FF0102F00702D1
:1015000032B110F8013B013A83EA010313B1F8D17B
:101510000020704701387047002D06BF354603385C
:10152000073815F0010F07D1013015F4807F02BF95
:10153000013015F4C03F0130F0BC0138704700BFE6
:10154000844641EA000313F003036DD1403A41D3CE
:1015500051F8043B40F8043B51F8043B40F8043B8D
:1015600051F8043B40F8043B51F8043B40F8043B7D
:1015700051F8043B40F8043B51F8043B40F8043B6D
:1015800051F8043B40F8043B51F8043B40F8043B5D
:1015900051F8043B40F8043B51F8043B40F8043B4D
:1015A00051F8043B40F8043B51F8043B40F8043B3D
:1015B00051F8043B40F8043B51F8043B40F8043B2D
:1015C00051F8043B40F8043B51F8043B40F8043B1D
:1015D000403ABDD2303211D351F8043B40F8043BBD
:1015E00051F8043B40F8043B51F8043B40F8043BFD
:1015F00051F8043B40F8043B103AEDD20C3205D3CD
:1016000051F8043B40F8043B043AF9D2043208D0C4
:10161000D2071CBF11F8013B00F8013B01D30B8836
:1016200003806046704700BF082A13D38B078DD014
:1016300010F003038AD0C3F10403D21ADB071CBFE6
:1016400011F8013B00F8013B80D331F8023B20F850
:10165000023B7BE7043AD9D3013A11F8013B00F889
:10166000013BF9D20B7803704B7843708B78837011
:101670006046704738B50C46084D844611462046F2
:101680001A4600232B60644600F07AFA431C00D00F
:1016900038BD2B68002BFBD0236038BDC80100206B
:1016A0002DE9F041144641B30AB306460D4600F059
:1016B0003FFA8442074602D8B4EB500F13D82146B4
:1016C0003046FFF77DF8804650B1BC42224629469D
:1016D00028BF3A46FFF734FF29463046FFF7F0F8B7
:1016E0004046BDE8F081A8464046BDE8F081A046EE
:1016F000FFF7E6F84046BDE8F081BDE8F04111464D
:10170000FFF75EB82DE9F84F92461F460A698B68CD
:10171000DDF828909A42B8BF1A46CAF8002091F81E
:1017200043300C46064613B10132CAF80020226845
:1017300091065FD5DAF800300233CAF8003022682B
:1017400012F0060F11461DD1E1689942D8BF11462B
:1017500018DD4FF0000804F1190B05E0E568DAF830
:101760000030ED1A45450CDD01235A463946304616
:10177000C847013008F10108F0D14FF0FF30BDE853
:10178000F88F216894F84330003B18BF01238A0684
:101790000AD5E1185A1C302081F84300224494F8FD
:1017A000451082F84310023304F1430239463046B3
:1017B000C8470130E1D02368DAF80050216903F00E
:1017C0000603042BD4E902201BD08A4220DD4FF00F
:1017D0000008521A90441A34002501E0454517DAF2
:1017E0000123224639463046C847013005F101053C
:1017F000F4D1C2E712F0060F0DD0003B18BF012351
:10180000D2E7401B8A4220EAE078E2DC0028E2DCF2
:101810000020BDE8F88FE168DAF800309942D8BFBF
:10182000114696DCAEE700BF2DE9F047174684B0BD
:101830000A7E0C9D0C460646984601F1430C002A90
:1018400035D0A2F15803D9B2202969D8202B67D806
:10185000DFE813F0E60066006600660066006600DA
:1018600066006600660066006600AC0070006600F8
:10187000660066006600700066006600660066002E
:1018800021008300C60066006600B6006600830083
:1018900066006600EC002B6822686169181D2860EC
:1018A00010061B6802D4520600F1E0801960002384
:1018B000E1462361CDF800803B4603AA214630462D
:1018C000FFF720FF013020D023694A4639463046D1
:1018D000C047013019D02368E068DDF80C909B0701
:1018E00018D5484516DD002504F1190A04E0E06822
:1018F000A0EB0903AB420DDD0123524639463046C9
:10190000C047013005F10105F1D14FF0FF3004B0BF
:10191000BDE8F0874845B8BF484604B0BDE8F08749
:1019200084F84220012004F142090023206184F858
:101930004330BFE72A682368111D1806296002D4C6
:10194000590600F195801068014600286268C0F2CF
:10195000938054484FF00A0E15E020682B6810F071
:10196000800F53F8041B02D1400648BF89B26F2A8A
:101970004C482B6014BF4FF00A0E4FF0080E0023A6
:10198000626884F84330002AA26051DB236823F0A8
:101990000403236000294BD1002A7BD1E146BEF12C
:1019A000080F56D0ACEB0903236183E72B681A6854
:1019B00004332B6004F1420984F842200120B4E78B
:1019C0002B686268191D2960D3F8009000214846F1
:1019D000FFF766FD002863D0A0EB09006060A4E774
:1019E000236843F02003236078222F4884F84520A1
:1019F0002A6813F0800F52F8041B03D113F0400F34
:101A000018BF89B22A60DA0744BF43F0200323607D
:101A100019B9236823F0200323604FF0100EAEE7BE
:101A2000582384F845301F482368E1E72368DBE743
:101A30007546E146B1FBF5F305FB131A0A46AA42C7
:101A400010F80A1009F8011D1946F3D2BEF1080F6B
:101A5000A8D12368DD07A5D5626823699A42A1DC75
:101A6000302309F8013C09F1FF399BE719801EE793
:101A7000B2F90010084668E72D20002AA26084F819
:101A8000430002DB23F0040323600A250548494292
:101A9000AE46CEE7037884F8423004F142097EE78F
:101AA000606842E7003000081430000870B50C464A
:101AB000084D03460026204611461C462E6000F0C5
:101AC00047F8431C00D070BD2B68002BFBD023606F
:101AD00070BD00BFC801002038B50C46084D8446D3
:101AE000114620461A4600232B60644600F040F859
:101AF000431C00D038BD2B68002BFBD0236038BDC1
:101B0000C801002038B50C46084D844611462046D1
:101B10001A4600232B60644600F048F8431C00D0AE
:101B200038BD2B68002BFBD0236038BDC8010020D6
:101B300051F8043C181F002BBCBF0B58C01870474D
:101B4000024B58221A604FF0FF307047C801002046
:101B5000024B58221A604FF0FF307047C801002036
:101B6000024B58221A600020704700BFC8010020B5
:101B7000024B58221A604FF0FF307047C801002016
:101B8000024B58221A604FF0FF307047C801002006
:101B9000044A05491368002B08BF0B46184410601F
:101BA00018467047CC01002070020020024B5822DA
:101BB0001A604FF0FF307047C801002053B94AB98E
:101BC000002908BF00281CBF4FF0FF314FF0FF3045
:101BD00000F06AB9ADF1080C6DE904CE00F006F82A
:101BE000DDF804E0DDE9022304B070472DE9F04799
:101BF000089D0E4604460F46002B4AD194468C455C
:101C0000B2FA82F260D942B1C2F12003974020FAC1
:101C100003F30CFA02FC1F4394404FEA1C4E1FFAD8
:101C20008CF6B7FBFEF1230C0EFB117743EA07435A
:101C300001FB06F098420AD91CEB030301F1FF37C0
:101C400080F01581984240F21281023963441B1AD8
:101C5000A4B2B3FBFEF00EFB103344EA034400FBD6
:101C600006F6A6420AD91CEB040400F1FF3380F00B
:101C70000081A64240F2FD806444023840EA0140FF
:101C8000A41B00211DB1D4400023C5E90043BDE8D9
:101C9000F0878B4205D90DB1C5E900010021084646
:101CA000F5E7B3FA83F1002946D1B34202D3824269
:101CB00000F2F580841A66EB030201201746002D1E
:101CC000E5D0C5E90047E2E7002A40F09380A1EBA8
:101CD0000C034FEA1C471FFA8CFE0121B3FBF7F6F9
:101CE00007FB1630230C43EA00430EFB06F0984234
:101CF00008D91CEB030306F1FF3802D2984200F228
:101D0000D08046461B1AA4B2B3FBF7F007FB103392
:101D100044EA03440EFB00FEA64508D91CEB04046C
:101D200000F1FF3302D2A64500F2B6801846A4EBBC
:101D30000E0440EA0640A5E7C1F120078B4022FAD5
:101D400007FC4CEA030C06FA01FE20FA07F426FA17
:101D500007F344EA0E0400FA01F84FEA1C404FEA88
:101D60001449B3FBF0FE1FFA8CF600FB1E3349EA60
:101D700003430EFB06F9994502FA01F20BD91CEB5D
:101D800003030EF1FF3A80F08580994540F282808E
:101D9000AEF1020E6344A3EB0909A4B2B9FBF0F360
:101DA00000FB139944EA094403FB06F6A64208D94E
:101DB0001CEB040403F1FF3068D2A64266D9023B53
:101DC000644443EA0E40A41BA0FB02E6B4427346FF
:101DD000B14652D34FD05DB1B8EB030264EB0904B6
:101DE00004FA07F722FA01F31F43CC40C5E9007457
:101DF00000214CE7C2F1200120FA01F30CFA02FCA9
:101E000026FA01F1964033434FEA1C471FFA8CFE35
:101E1000B1FBF7F007FB1016190C41EA064100FB75
:101E20000EF68E4204FA02F408D91CEB010100F10F
:101E3000FF382DD28E422BD902386144891B9BB2C8
:101E4000B1FBF7F607FB161143EA014306FB0EF15F
:101E5000994208D91CEB030306F1FF3814D29942CA
:101E600012D9023E63445B1A46EA004136E739461E
:101E7000EDE6184602E7F045ADD2BEEB020366EB95
:101E80000C060138B146A6E74646ECE7034698E75C
:101E90004046D3E7D6467EE76444023847E7084623
:101EA0000DE7023E63442DE7704700BF00B583B0E5
:101EB0004FF4FA6000F012F80548FEF71DFA0A2305
:101EC00000934FF08042034B0348FEF779FEEFE7A3
:101ED000CC2F00083333F33FD82F000810B5044649
:101EE0000421034800F0A0FE204600F063FF10BD6F
:101EF0000004024072B6FEE700B595B03022002122
:101F000008A8FEF713FB002303930493059306939D
:101F100007930193214A116C41F080511164126CB6
:101F200002F080520192019A02931D4B1A6842F40A
:101F300080421A601B6803F480430293029B0123D2
:101F400008934FF48033099302230E934FF48002D9
:101F50000F92192210924FF4A87211921293042337
:101F6000139308A800F03EFA98B90F2303930223B5
:101F70000493002305934FF4A05306934FF480532A
:101F80000793052103A800F07DFC20B915B05DF88A
:101F900004FBFFF7AFFFFFF7ADFF00BF00380240C3
:101FA0000070004008B500F0D9FEFFF7A5FF00F073
:101FB00011F800F067F800F0BBF8FFF777FF042195
:101FC000034800F031FE4FF47A7000F0F3FEF6E7BC
:101FD00000040240F0B58BB00024059406940794E9
:101FE000089409940194244B1A6B42F080021A63FE
:101FF0001A6B02F080020192019A02941A6B42F06D
:1020000004021A631A6B02F004020292029A039409
:102010001A6B42F002021A631A6B02F00202039278
:10202000039A04941A6B42F001021A631B6B03F0CB
:1020300001030493049B114F22462021384600F0EF
:10204000EDFD0F4D22460421284600F0E7FD202338
:102050000593012606960794089405A9384600F0D2
:10206000E7FC0423059306960794089405A92846DF
:1020700000F0DEFC0BB0F0BD00380240000802406A
:102080000004024008B50B480B4B03600B4B436048
:1020900000238360C3604FF4804202614361836127
:1020A000C361036200F0C0F800B908BDFFF722FF6A
:1020B000FBE700BFD001002000540040A0860100D3
:1020C00030B589B0002303930493059306930793D7
:1020D0000268144B9A4201D009B030BD0025019529
:1020E000114C236B43F002032363236B03F00203C1
:1020F0000193019BC02303931223049303230693AC
:102100000423079303A9094800F092FC0295236C6D
:1021100043F400132364236C03F400130293029B23
:10212000DAE700BF005400400038024000040240DB
:1021300008B50A480A4B03604FF4E13343600023BB
:102140008360C36003610C2242618361C36100F05C
:10215000CDFE00B908BDFFF7CDFEFBE7240200204D
:102160000010014000B589B0002303930493059348
:1021700006930793026803F1804303F588339A427C
:1021800002D009B05DF804FB0021019103F59433FE
:102190005A6C42F010025A645A6C02F0100201921A
:1021A000019A02911A6B42F001021A631B6B03F051
:1021B00001030293029B4FF4C06303930223049331
:1021C000032306930723079303A9024800F030FC7A
:1021D000D7E700BF00000240FEE7FEE7FEE7FEE7AC
:1021E000FEE770477047704708B500F0D1FD08BDA5
:1021F00082B0002100910B4B5A6C42F480425A6429
:102200005A6C02F480420092009A01911A6C42F0DA
:1022100080521A641B6C03F080530193019B02B03F
:10222000704700BF00380240002800F0CC8070B535
:10223000044690F83D30002B77D0242384F83D30BD
:102240002268136823F0010313602268136843F4C3
:10225000004313602268136823F40043136000F006
:10226000C7FB62685A4B9A4264D85A4B98428CBF5B
:1022700000230123002B40F0A8805749A1FB003127
:102280008B0C25686A6822F03F0242EA91426A603C
:1022900021680A6A22F03F0266684D4DAE424FD86F
:1022A000013313430B622168CA6922F44F4222F0C2
:1022B000FF026568464B9D424CD8431E6D00B3FB40
:1022C000F5F3013340F6FC70034278D0C3F30B03FF
:1022D0001A43CA6121680B6823F0C003E269206ACF
:1022E000024313430B6021688B6823F4034323F0FC
:1022F000FF032269E068024313438B602168CB68C7
:1023000023F0FF036269A06902431343CB60226894
:10231000136843F00103136000202064202384F835
:102320003D30206384F83E0070BD80F83C30FFF7FC
:10233000C7FE82E7294B98428CBF0023012399E70F
:102340004FF4967505FB03F3254DA5FB03539B093D
:102350000133A6E7A668BEB9431E05EB450CB3FBE7
:10236000FCF30133C3F30B03B3FA83F35B0943BB01
:10237000C6B9431E05EB4505B3FBF5F30133C3F3C3
:102380000B0343F40043A3E7431E05EB850C0CEB62
:102390008C0CB3FBFCF30133C3F30B03B3FA83F3ED
:1023A0005B09E4E7431E05EB850505EB8505B3FBFB
:1023B000F5F30133C3F30B0343F4404388E70423ED
:1023C00086E7012384E7012070470120ACE700BFC6
:1023D000A08601007F841E0083DE1B43FF083D00B2
:1023E000D34D6210002800F0E08170B582B0044641
:1023F000036813F0010F3BD09F4B9B6803F00C0365
:10240000042B2CD09C4B9B6803F00C03082B21D091
:102410006368B3F5803F4FD0B3F5A02F52D0964BF1
:102420001A6822F480321A601A6822F480221A6034
:102430006368002B50D000F0B7FC05468E4B1B683C
:1024400013F4003F14D100F0AFFC401B6428F5D911
:102450000320B1E1884B5B6813F4800FD8D0864B22
:102460001B6813F4003F03D06368002B00F09F81CA
:10247000236813F0020F54D07F4B9B6813F00C0FAE
:102480003ED07D4B9B6803F00C03082B33D0E368F0
:10249000002B68D0794B01221A6000F085FC0546BC
:1024A000754B1B6813F0020F54D100F07DFC401BEC
:1024B0000228F5D903207FE16F4A136843F4803383
:1024C0001360B5E76C4B1A6842F480221A601A68F0
:1024D00042F480321A60ABE700F066FC0546664BBA
:1024E0001B6813F4003FC3D000F05EFC401B64285F
:1024F000F5D9032060E1604B5B6813F4800FC6D10F
:102500005D4B1B6813F0020F03D0E368012B40F012
:102510005081594A136823F0F803216943EAC10343
:102520001360236813F0080F42D063696BB3534BF9
:102530000122C3F8802E00F037FC05464E4B5B6F3E
:1025400013F0020F34D100F02FFC401B0228F5D904
:10255000032031E1484A136823F0F803216943EA74
:10256000C1031360DDE7454B00221A6000F01CFC3C
:102570000546414B1B6813F0020FD2D000F014FC4B
:10258000401B0228F5D9032016E13C4B0022C3F87A
:10259000802E00F009FC0546374B5B6F13F0020FED
:1025A00006D000F001FC401B0228F5D9032003E10E
:1025B000236813F0040F77D02F4B1B6C13F0805F50
:1025C00033D1002301932C4B1A6C42F080521A64D1
:1025D0001B6C03F080530193019B0125284B1B6862
:1025E00013F4807F23D0A368012B34D0052B38D07F
:1025F000214B1A6F22F001021A671A6F22F00402AF
:102600001A67A368002B3DD000F0CEFB06461A4B9C
:102610001B6F13F0020F46D100F0C6FB801B41F286
:1026200088339842F3D90320C6E00025D6E7144A40
:10263000136843F48073136000F0B6FB0646104B3A
:102640001B6813F4807FCED100F0AEFB801B022804
:10265000F5D90320B0E0084A136F43F00103136774
:10266000CFE7054B1A6F42F004021A671A6F42F067
:1026700001021A67C5E700BF003802400000474268
:102680000070004000F090FB0646524B1B6F13F0A9
:10269000020F08D000F088FB801B41F2883398427B
:1026A000F3D9032088E0EDB9A369002B00F0838003
:1026B000484A926802F00C02082A51D0022B17D027
:1026C000454B00221A6600F06FFB0446414B1B6825
:1026D00013F0007F42D000F067FB001B0228F5D901
:1026E000032069E03B4A136C23F080531364DBE75B
:1026F000394B00221A6600F057FB0546354B1B6824
:1027000013F0007F06D000F04FFB401B0228F5D9E4
:10271000032051E0E369226A1343626A43EA8213A9
:10272000A26A5208013A43EA0243E26A43EA0263B8
:10273000284A5360284B01221A6600F035FB0446F4
:10274000244B1B6813F0007F06D100F02DFB001B0B
:102750000228F5D903202FE000202DE000202BE0F7
:10276000012B2BD01B4B5B6803F48001E269914283
:1027700026D103F03F02216A8A4223D1616A47F6DB
:10278000C0721A40B2EB811F1ED103F44031A26A1D
:102790005208013AB1EB024F18D103F07063E26ABC
:1027A000B3EB026F14D1002006E001207047012036
:1027B00002E0012000E0002002B070BD0120FBE734
:1027C0000120F9E70120F7E70120F5E70120F3E711
:1027D0000120F1E7003802400000474208B5264BCF
:1027E0009B6803F00C03042B41D0082B41D1224BF2
:1027F0005A6802F03F025B6813F4800F12D01E4B40
:102800005968C1F388111D480023A1FB0001FFF79F
:10281000D5F9194B5B68C3F3014301335B00B0FB8F
:10282000F3F008BD144B5868C0F388104FEA401C01
:10283000BCEB000C6EEB0E0E4FEA8E1343EA9C636A
:102840004FEA8C11B1EB0C0163EB0E03DB0043EAA2
:102850005173C90011EB000C43F1000399020023EE
:102860004FEA8C2041EA9C51FFF7A8F9D1E70348D1
:10287000D7E70348D5E700BF0038024040787D0124
:102880000024F400002800F09B8070B50D4604463B
:102890004F4B1B6803F007038B4208D2CBB24C4A64
:1028A0001370136803F007038B4240F08B8023689A
:1028B00013F0020F17D013F0040F04D0454A9368A9
:1028C00043F4E0539360236813F0080F04D0414AA7
:1028D000936843F4604393603E4A936823F0F003A7
:1028E000A1680B439360236813F0010F32D0636833
:1028F000012B21D09A1E012A25D9364A126812F0DE
:10290000020F61D033498A6822F0030213438B60BF
:1029100000F04AFA06462F4B9B6803F00C036268EE
:10292000B3EB820F16D000F03FFA801B41F28833E0
:102930009842F0D9032042E0264A126812F4003F80
:10294000E0D101203BE0234A126812F0007FD9D188
:10295000012034E01E4B1B6803F00703AB4207D98C
:10296000EAB21B4B1A701B6803F00703AB422DD170
:10297000236813F0040F06D0164A936823F4E0533B
:10298000E1680B439360236813F0080F07D0114AE6
:10299000936823F46043216943EAC1039360FFF71E
:1029A0001DFF0C4B9B68C3F303130B4AD35CD84049
:1029B0000A4B18600A4B186800F0AAF9002070BD95
:1029C000012070470120FAE70120F8E70120F6E72F
:1029D000003C024000380240303000086400002013
:1029E00060000020014B1868704700BF64000020A1
:1029F00008B5FFF7F7FF044B9B68C3F38223034A34
:102A0000D35CD84008BD00BF003802402830000821
:102A100008B5FFF7E7FF044B9B68C3F34233034A53
:102A2000D35CD84008BD00BF003802402830000801
:102A300000230F2B00F2E98070B582B065E0856855
:102A40004FEA430E032404FA0EF425EA0405CC6889
:102A500004FA0EF42C438460446824EA02044A68B1
:102A6000C2F300129A40224342605CE0DC08083462
:102A700050F8242003F00705AD004FF00F0E0EFABA
:102A800005FE22EA0E0E0A69AA4042EA0E0240F84A
:102A900024205CE0072200E0002202FA0EF22A4322
:102AA00002345A4D45F82420594A94686FEA0C02C2
:102AB00024EA0C054E6816F4801F01D04CEA040588
:102AC000534CA560E46802EA04054E6816F4001F42
:102AD00001D04CEA04054E4CE560646802EA040546
:102AE0004E6816F4003F01D04CEA0405484C65607E
:102AF000246822404D6815F4803F01D04CEA04025E
:102B0000434C226001330F2B7DD801229A400C6880
:102B100004EA020C32EA0404F4D14C6804F0030421
:102B2000013C012C8BD94A6802F00302032A09D028
:102B3000C4685D000322AA4024EA02048A68AA400D
:102B40002243C2604A6802F00302022A8ED004685F
:102B50004FEA430E032202FA0EF224EA02044A6804
:102B600002F0030202FA0EF2224302604A6812F4F3
:102B7000403FC7D000220192264A546C44F480445E
:102B80005464526C02F480420192019A9C08A51C84
:102B90001E4A52F8255003F0030E4FEA8E0E0F2204
:102BA00002FA0EF225EA02051B4A90423FF474AF86
:102BB00002F5806290421AD002F58062904218D0ED
:102BC00002F58062904216D002F58062904214D0E5
:102BD00002F58062904212D002F58062904210D0DD
:102BE00002F5806290423FF455AF082255E701227A
:102BF00053E7022251E703224FE704224DE7052263
:102C00004BE7062249E702B070BD7047003801402B
:102C1000003C014000380240000002400AB18161DE
:102C20007047090481617047436901EA030221EAA0
:102C3000030141EA0241816170470000002808DB7E
:102C40000901C9B200F1604000F5614080F800134D
:102C5000704700F00F000901C9B2014B19547047C9
:102C600014ED00E000B500F00700C0F1070CBCF166
:102C7000040F28BF4FF0040C031D062B0FD9C31EF1
:102C80004FF0FF3E0EFA0CF021EA000199400EFAD7
:102C900003FE22EA0E0241EA02005DF804FB002373
:102CA000EEE70000074AD36823F4E0631B041B0C23
:102CB000000200F4E060034343F0BF6343F40033D9
:102CC000D360704700ED00E010B50446054BD868AE
:102CD000C0F30220FFF7C6FF01462046FFF7AEFF14
:102CE00010BD00BF00ED00E00138B0F1807F0BD2D5
:102CF0004FF0E0235861054AF02182F823100020AC
:102D0000986107221A6170470120704700ED00E0CA
:102D100010B504460E4B1A784FF47A73B3FBF2F3F6
:102D20000C4A1068B0FBF3F0FFF7DEFF68B90F2C18
:102D300001D901200AE0002221464FF0FF30FFF7C1
:102D4000C3FF054B1C60002000E0012010BD00BF48
:102D50005C000020640000206000002008B50B4BE0
:102D60001A6842F400721A601A6842F480621A60AB
:102D70001A6842F480721A600320FFF793FF0F2055
:102D8000FFF7C6FFFFF734FA002008BD003C024001
:102D9000034A1168034B1B780B441360704700BF54
:102DA0006C0200205C000020014B1868704700BFD7
:102DB0006C02002038B50446FFF7F6FF0546B4F173
:102DC000FF3F02D0044B1B781C44FFF7EDFF401B74
:102DD000A042FAD338BD00BF5C00002010B5044605
:102DE0000268136923F44053C1680B43136183687D
:102DF00002691A4343691A43C3691A430168CB68DD
:102E000023F4164323F00C031343CB600268536989
:102E100023F4407381690B4353610368314A934241
:102E200006D002F58062934202D0FFF7E1FD01E097
:102E3000FFF7EEFDE369B3F5004F29D00021031839
:102E400049411B1841F10001C90041EA5371DB00FF
:102E5000181863684FEA83024FEA937341F1000147
:102E6000FEF7ACFE204AA2FB00314909642303FBB4
:102E700011031B013233A2FB03235B0903F0F002B1
:102E800002EB011203F00F03216813448B6010BDA5
:102E90000023021843EB0301121841F10001C9009D
:102EA00041EA5271D200101841F100016268921893
:102EB0005B41FEF783FE0C4AA2FB00314909642303
:102EC00003FB1103DB003233A2FB03235B095A002F
:102ED00002F4F87202EB011203F0070321681344B5
:102EE0008B60D4E7001001401F85EB5160B310B533
:102EF000044690F8413013B3242384F8413022680B
:102F0000D36823F40053D3602046FFF767FF22689D
:102F1000136923F4904313612268536923F02A0351
:102F200053612268D36843F40053D3600020606487
:102F3000202384F8413084F84230606310BD80F86B
:102F40004030FFF70FF9D7E701207047034AD2F866
:102F5000883043F47003C2F88830704700ED00E019
:102F6000DFF834D0FFF7F2FF0C480D490D4A00237B
:102F700002E0D458C4500433C4188C42F9D30A4A2E
:102F80000A4C002301E013600432A242FBD3FDF798
:102F900043F9FFF707F87047000002200000002007
:102FA00068000020503000086800002070020020F7
:102FB000FEE70000F8B500BFF8BC08BC9E467047AD
:0C2FC000F8B500BFF8BC08BC9E46704786
:102FCC0068656C6C6F2067636300000068656C6CEF
:102FDC006F206763632C2025662C2025640A000073
:102FEC00232D302B20000000686C4C006566674573
:102FFC0046470000303132333435363738394142A8
:10300C004344454600000000303132333435363706
:10301C0038396162636465660000000000000000DE
:10302C000102030400000000000000000102030480
:04303C000607080972
:0830400060E4FF7F01000000C5
:04304800F901000882
:04304C00D1010008A6
:103050000000000003000000840000201000002099
:103060000000000084000020EC000020540100203B
:103070000000000000000000000000000000000050
:103080000000000000000000000000000000000040
:103090000000000000000000000000000000000030
:1030A000000000000000000000000000010000001F
:0830B000100000000024F400F0
:0400000508002F615F
:00000001FF
