:020000040800F2
:1000000000000220211F0008711D0008731D000858
:10001000751D0008771D0008791D0008000000000C
:100020000000000000000000000000007B1D000830
:100030007D1D0008000000007F1D0008811D0008D4
:10004000711F0008711F0008711F0008711F000850
:10005000711F0008711F0008711F0008711F000840
:10006000711F0008711F0008711F0008711F000830
:10007000711F0008711F0008711F0008711F000820
:10008000711F0008711F0008711F0008711F000810
:10009000711F0008711F0008711F0008711F000800
:1000A000711F0008711F0008711F0008711F0008F0
:1000B000711F0008711F0008711F0008711F0008E0
:1000C000711F0008711F0008711F0008711F0008D0
:1000D000711F0008711F0008711F0008711F0008C0
:1000E000711F0008711F0008711F0008711F0008B0
:1000F000711F0008711F0008711F0008711F0008A0
:10010000711F0008711F0008711F0008711F00088F
:10011000711F0008711F0008711F0008711F00087F
:10012000711F0008711F0008711F0008711F00086F
:10013000711F0008711F0008711F0008711F00085F
:10014000711F0008711F0008711F0008711F00084F
:10015000711F0008711F0008711F0008711F00083F
:10016000711F0008711F0008711F0008711F00082F
:10017000711F0008711F0008711F000800000000B7
:08018000711F0008711F000847
:1001900001F0FF01102A2BDB10F0070F08D010F838
:1001A000013B013A8B422DD010F0070F42B3F6D13C
:1001B000F0B441EA012141EA014122F007047FF055
:1001C00000070023F0E80256083C85EA010586EAAC
:1001D000010685FA47F5A3FA87F586FA47F6A5FAE8
:1001E00087F68EB9EED1F0BC01F0FF0102F00702F4
:1001F00032B110F8013B013A83EA010313B1F8D19F
:100200000020704701387047002D06BF354603387F
:10021000073815F0010F07D1013015F4807F02BFB8
:10022000013015F4C03F0130F0BC0138704700BF09
:10023000034613F8012B002AFBD1181A0138704726
:1002400081F0004102E000BF83F0004330B54FEA87
:1002500041044FEA430594EA050F08BF90EA020FF4
:100260001FBF54EA000C55EA020C7FEA645C7FEA87
:10027000655C00F0E2804FEA5454D4EB5555B8BFAA
:100280006D420CDD2C4480EA020281EA030382EA1B
:10029000000083EA010180EA020281EA0303362DAD
:1002A00088BF30BD11F0004F4FEA01314FF4801C80
:1002B0004CEA113102D0404261EB410113F0004F92
:1002C0004FEA03334CEA133302D0524263EB430349
:1002D00094EA050F00F0A780A4F10104D5F1200EE7
:1002E0000DDB02FA0EFC22FA05F2801841F1000142
:1002F00003FA0EF2801843FA05F359410EE0A5F116
:1003000020050EF1200E012A03FA0EFC28BF4CF046
:10031000020C43FA05F3C01851EBE37101F00045FC
:1003200007D54FF0000EDCF1000C7EEB00006EEB09
:100330000101B1F5801F1BD3B1F5001F0CD3490893
:100340005FEA30004FEA3C0C04F101044FEA4452EA
:1003500012F5800F80F09A80BCF1004F08BF5FEA71
:10036000500C50F1000041EB045141EA050130BD51
:100370005FEA4C0C404141EB0101013C28BFB1F563
:10038000801FE9D291F0000F04BF01460020B1FAAE
:1003900081F308BF2033A3F10B03B3F120020CDA81
:1003A0000C3208DD02F1140CC2F10C0201FA0CF05F
:1003B00021FA02F10CE002F11402D8BFC2F1200CC4
:1003C00001FA02F120FA0CFCDCBF41EA0C0190407A
:1003D000E41AA2BF01EB0451294330BD6FEA0404C3
:1003E0001F3C1CDA0C340EDC04F11404C4F12002AE
:1003F00020FA04F001FA02F340EA030021FA04F3C0
:1004000045EA030130BDC4F10C04C4F1200220FA16
:1004100002F001FA04F340EA0300294630BD21FA54
:1004200004F0294630BD94F0000F83F4801306BF1A
:1004300081F480110134013D4EE77FEA645C18BF0E
:100440007FEA655C29D094EA050F08BF90EA020FA5
:1004500005D054EA000C04BF1946104630BD91EA9D
:10046000030F1EBF0021002030BD5FEA545C05D1A0
:100470004000494128BF41F0004130BD14F58004DF
:100480003CBF01F5801130BD01F0004545F0FE4153
:1004900041F470014FF0000030BD7FEA645C1ABF88
:1004A000194610467FEA655C1CBF0B46024650EABF
:1004B000013406BF52EA033591EA030F41F40021EB
:1004C00030BD00BF90F0000F04BF0021704730B571
:1004D0004FF4806404F132044FF000054FF0000146
:1004E00050E700BF90F0000F04BF0021704730B507
:1004F0004FF4806404F1320410F0004548BF4042DC
:100500004FF000013EE700BF42004FEAE2014FEA30
:1005100031014FEA02701FBF12F07F4393F07F4F0B
:1005200081F06051704732F07F4208BF704793F00E
:100530007F4F04BF41F40021704730B54FF4607421
:1005400001F0004521F000411CE700BF50EA010224
:1005500008BF704730B54FF000050AE050EA0102CD
:1005600008BF704730B511F0004502D5404261EB3D
:1005700041014FF4806404F132045FEA915C3FF47E
:10058000D8AE4FF003025FEADC0C18BF03325FEA1B
:10059000DC0C18BF033202EBDC02C2F1200300FACC
:1005A00003FC20FA02F001FA03FE40EA0E0021FAF1
:1005B00002F11444BDE600BF70B54FF0FF0C4CF4DF
:1005C000E06C1CEA11541DBF1CEA135594EA0C0F91
:1005D00095EA0C0F00F0DEF82C4481EA030621EACC
:1005E0004C5123EA4C5350EA013518BF52EA033507
:1005F00041F4801143F4801338D0A0FB02CE4FF0B9
:100600000005E1FB02E506F00042E0FB03E54FF0E8
:100610000006E1FB03569CF0000F18BF4EF0010EE0
:10062000A4F1FF04B6F5007F64F5407404D25FEADC
:100630004E0E6D4146EB060642EAC62141EA55518F
:100640004FEAC52040EA5E504FEACE2EB4F1FD0CD1
:1006500088BFBCF5E06F1ED8BEF1004F08BF5FEA4F
:10066000500E50F1000041EB045170BD06F0004601
:1006700046EA010140EA020081EA0301B4EB5C04AE
:10068000C2BFD4EB0C0541EA045170BD41F48011A6
:100690004FF0000E013C00F3AB8014F1360FDEBFCB
:1006A000002001F0004170BDC4F10004203C35DAA7
:1006B0000C341BDC04F11404C4F1200500FA05F32A
:1006C00020FA04F001FA05F240EA020001F00042CB
:1006D00021F0004110EBD37021FA04F642EB060141
:1006E0005EEA430E08BF20EAD37070BDC4F10C046B
:1006F000C4F1200500FA04F320FA05F001FA04F22F
:1007000040EA020001F0004110EBD37041F100011A
:100710005EEA430E08BF20EAD37070BDC4F1200525
:1007200000FA05F24EEA020E20FA04F301FA05F28D
:1007300043EA020321FA04F001F0004121FA04F235
:1007400020EA020000EBD3705EEA430E08BF20EA05
:10075000D37070BD94F0000F0FD101F0004640003F
:1007600041EB010111F4801F08BF013CF7D041EAC1
:10077000060195F0000F18BF704703F000465200C5
:1007800043EB030313F4801F08BF013DF7D043EA96
:100790000603704794EA0C0F0CEA135518BF95EA4C
:1007A0000C0F0CD050EA410618BF52EA4306D1D1D3
:1007B00081EA030101F000414FF0000070BD50EAF2
:1007C000410606BF1046194652EA430619D094EA7C
:1007D0000C0F02D150EA013613D195EA0C0F05D166
:1007E00052EA03361CBF104619460AD181EA0301BA
:1007F00001F0004141F0FE4141F470014FF0000072
:1008000070BD41F0FE4141F4780170BD70B54FF00C
:10081000FF0C4CF4E06C1CEA11541DBF1CEA13558C
:1008200094EA0C0F95EA0C0F00F0A7F8A4EB05046E
:1008300081EA030E52EA03354FEA013100F0888065
:100840004FEA03334FF0805545EA131343EA12632E
:100850004FEA022245EA111545EA10654FEA0026E3
:100860000EF000419D4208BF964244F1FD0404F59C
:10087000407402D25B084FEA3202B61A65EB0305F8
:100880005B084FEA32024FF480104FF4002CB6EBB5
:10089000020E75EB030E22BFB61A754640EA0C0035
:1008A0005B084FEA3202B6EB020E75EB030E22BF75
:1008B000B61A754640EA5C005B084FEA3202B6EBB6
:1008C000020E75EB030E22BFB61A754640EA9C0075
:1008D0005B084FEA3202B6EB020E75EB030E22BF45
:1008E000B61A754640EADC0055EA060E18D04FEA03
:1008F000051545EA16754FEA06164FEAC30343EAA3
:1009000052734FEAC2025FEA1C1CC0D111F4801F6F
:100910000BD141EA00014FF000004FF0004CB6E768
:1009200011F4801F04BF01430020B4F1FD0C88BF07
:10093000BCF5E06F3FF6AFAEB5EB030C04BFB6EB12
:10094000020C5FEA500C50F1000041EB045170BD05
:100950000EF0004E4EEA113114EB5C04C2BFD4EB32
:100960000C0541EA045170BD41F480114FF0000EB6
:10097000013C90E645EA060E8DE60CEA135594EA32
:100980000C0F08BF95EA0C0F3FF43BAF94EA0C0F35
:100990000AD150EA01347FF434AF95EA0C0F7FF4AA
:1009A00025AF104619462CE795EA0C0F06D152EAFE
:1009B00003353FF4FDAE1046194622E750EA4106E2
:1009C00018BF52EA43067FF4C5AE50EA41047FF4F3
:1009D0000DAF52EA43057FF4EBAE12E74FF0FF3C58
:1009E00006E000BF4FF0010C02E000BF4FF0010C29
:1009F0004DF804CD4FEA410C7FEA6C5C4FEA430CA2
:100A000018BF7FEA6C5C1BD001B050EA410C0CBFF0
:100A100052EA430C91EA030F02BF90EA020F002052
:100A2000704710F1000F91EA030F58BF994208BFB9
:100A300090422CBFD8176FEAE37040F00100704776
:100A40004FEA410C7FEA6C5C02D150EA013C07D1CD
:100A50004FEA430C7FEA6C5CD6D152EA033CD3D018
:100A60005DF8040B704700BF8446104662468C4612
:100A70001946634600E000BF01B5FFF7B7FF002845
:100A800048BF10F1000F01BD4DF808EDFFF7F4FF6E
:100A90000CBF012000205DF808FB00BF4DF808EDF9
:100AA000FFF7EAFF34BF012000205DF808FB00BF1C
:100AB0004DF808EDFFF7E0FF94BF012000205DF83E
:100AC00008FB00BF4DF808EDFFF7CEFF94BF0120F3
:100AD00000205DF808FB00BF4DF808EDFFF7C4FFEC
:100AE00034BF012000205DF808FB00BF4FEA410C35
:100AF0007FEA6C5C02D150EA013C0AD14FEA430C18
:100B00007FEA6C5C02D152EA033C02D14FF0000054
:100B100070474FF0010070474FEA410212F5001292
:100B200015D211D56FF47873B3EB625212D94FEA34
:100B3000C12343F0004343EA505311F0004F23FA1E
:100B400002F018BF404270474FF00000704750EA73
:100B5000013005D111F0004008BF6FF00040704730
:100B60004FF00000704700BF53B94AB9002908BFD1
:100B700000281CBF4FF0FF314FF0FF3000F00CB8E1
:100B8000ADF1080C6DE904CE03F0FCFEDDF804E0E5
:100B9000DDE9022304B07047704700BF10B5054C73
:100BA000237833B9044B13B10448AFF30080012319
:100BB000237010BDD4010020000000007C4C000810
:100BC00008B5034B1BB103490348AFF3008008BDD0
:100BD00000000000D80100207C4C00082DE9F04105
:100BE0008AB005AD002405940694079408940994EE
:100BF0000194254B1A6B42F080021A631A6B02F0C3
:100C000080020192019A02941A6B42F004021A6364
:100C10001A6B02F004020292029A03941A6B42F0D9
:100C200002021A631A6B02F002020392039A0494FE
:100C30001A6B42F001021A631B6B03F00103049369
:100C4000049BDFF84C8022462021404600F0D2FA77
:100C50000E4E22460421304600F0CCFA20230593A4
:100C600001270697079408942946404600F0CCF9DE
:100C7000042305930697079408942946304600F00C
:100C8000C3F90AB0BDE8F081003802400004024018
:100C90000008024008B50B480B4B03600B4B436048
:100CA00000238360C3604FF480420261436183612B
:100CB000C361036200F0AEFA00B908BD00F04CF861
:100CC000FBE700BFF001002000540040A0860100B7
:100CD00030B589B0002303930493059306930793DB
:100CE0000268144B9A4201D009B030BD002501952D
:100CF000114C236B43F002032363236B03F00203C5
:100D00000193019BC02303931223049303230693AF
:100D10000423079303A9094800F076F90295236C90
:100D200043F400132364236C03F400130293029B27
:100D3000DAE700BF005400400038024000040240DF
:100D400010B504462021034800F05AFA204600F06E
:100D5000DDF810BD0008024072B6FEE710B594B091
:100D600008AC30220021204601F062FF00230393EB
:100D700004930593069307930193214A116C41F064
:100D800080511164126C02F080520192019A029318
:100D90001C4B1A6842F480421A601B6803F48043BB
:100DA0000293029B012308934FF48033099302239B
:100DB0000E934FF480020F92192210924FF4A872F2
:100DC0001192129304231393204600F01DFB90B957
:100DD0000F23039302230493002305934FF4A0539E
:100DE00006934FF480530793052103A800F05CFDA0
:100DF00018B914B010BDFFF7AFFFFFF7ADFF00BF8C
:100E0000003802400070004008B500F053F8FFF7CA
:100E1000A5FFFFF7E3FEFFF73DFF01F01DF800F02F
:100E20000BF80421034800F0EBF94FF47A7000F05E
:100E30006DF8F6E70004024000B583B04FF47A7015
:100E4000FFF77EFF054801F015FE0A2300934FF0DF
:100E50008042034B034801F0A5FDEFE7984C0008E2
:100E60003333F33FA84C000810B504460E4B1A78F4
:100E70004FF47A73B3FBF2F30C4A1068B0FBF3F053
:100E800000F0AEF868B90F2C01D901200AE0002269
:100E900021464FF0FF3000F093F8054B1C60002016
:100EA00000E0012010BD00BF00000020080000206D
:100EB0000400002008B50B4B1A6842F400721A6057
:100EC0001A6842F480621A601A6842F480721A60EA
:100ED000032000F063F80F20FFF7C6FF00F078FA58
:100EE000002008BD003C0240034A1168034B1B78F8
:100EF0000B441360704700BF440200200000002034
:100F0000014B1868704700BF4402002038B5044602
:100F1000FFF7F6FF0546B4F1FF3F02D0044B1B7804
:100F20001C44FFF7EDFF401BA042FAD338BD00BFC1
:100F300000000020002808DB0901C9B200F1604070
:100F400000F5614080F80013704700F00F000901C0
:100F5000C9B2014B1954704714ED00E000B500F020
:100F60000700C0F1070CBCF1040F28BF4FF0040CC0
:100F7000031D062B0FD9C31E4FF0FF3E0EFA0CF0D7
:100F800021EA000199400EFA03FE22EA0E0241EA2C
:100F900002005DF804FB0023EEE70000074AD36877
:100FA00023F4E0631B041B0C000200F4E060034325
:100FB00043F0BF6343F40033D360704700ED00E0BB
:100FC00010B50446054BD868C0F30220FFF7C6FFF2
:100FD00001462046FFF7AEFF10BD00BF00ED00E068
:100FE0000138B0F1807F0BD24FF0E0235861054A01
:100FF000F02182F823100020986107221A617047BF
:101000000120704700ED00E000230F2B00F2E98083
:1010100070B582B065E085684FEA430E032404FA98
:101020000EF425EA0405CC6804FA0EF42C4384601F
:10103000446824EA02044A68C2F300129A40224338
:1010400042605CE0DC08083450F8242003F0070517
:10105000AD004FF00F0E0EFA05FE22EA0E0E0A69E1
:10106000AA4042EA0E0240F824205CE0072200E099
:10107000002202FA0EF22A4302345A4D45F8242087
:10108000594A94686FEA0C0224EA0C054E6816F47B
:10109000801F01D04CEA0405534CA560E46802EAC5
:1010A00004054E6816F4001F01D04CEA04054E4CAE
:1010B000E560646802EA04054E6816F4003F01D05A
:1010C0004CEA0405484C6560246822404D6815F4DC
:1010D000803F01D04CEA0402434C226001330F2BC5
:1010E0007DD801229A400C6804EA020C32EA04041A
:1010F000F4D14C6804F00304013C012C8BD94A68FC
:1011000002F00302032A09D0C4685D000322AA404A
:1011100024EA02048A68AA402243C2604A6802F0B4
:101120000302022A8ED004684FEA430E032202FA19
:101130000EF224EA02044A6802F0030202FA0EF2F6
:10114000224302604A6812F4403FC7D00022019255
:10115000264A546C44F480445464526C02F4804235
:101160000192019A9C08A51C1E4A52F8255003F0D2
:10117000030E4FEA8E0E0F2202FA0EF225EA020546
:101180001B4A90423FF474AF02F5806290421AD03D
:1011900002F58062904218D002F58062904216D02B
:1011A00002F58062904214D002F58062904212D023
:1011B00002F58062904210D002F5806290423FF4C6
:1011C00055AF082255E7012253E7022251E70322D7
:1011D0004FE704224DE705224BE7062249E702B01C
:1011E00070BD704700380140003C014000380240AB
:1011F000000002400AB181617047090481617047B3
:10120000436901EA030221EA030141EA02418161E3
:1012100070470000002800F0CC8070B5044690F8BC
:101220003D30002B77D0242384F83D3022681368AA
:1012300023F0010313602268136843F40043136032
:101240002268136823F40043136000F0E3FB626834
:101250005A4B9A4264D85A4B98428CBF00230123C0
:10126000002B40F0A8805749A1FB00318B0C25686A
:101270006A6822F03F0242EA91426A6021680A6A83
:1012800022F03F0266684D4DAE424FD80133134302
:101290000B622168CA6922F44F4222F0FF0265689E
:1012A000464B9D424CD8431E6D00B3FBF5F3013312
:1012B00040F6FC70034278D0C3F30B031A43CA61B3
:1012C00021680B6823F0C003E269206A02431343DC
:1012D0000B6021688B6823F4034323F0FF0322692A
:1012E000E068024313438B602168CB6823F0FF035F
:1012F0006269A06902431343CB602268136843F01C
:101300000103136000202064202384F83D30206313
:1013100084F83E0070BD80F83C30FFF7D9FC82E7CE
:10132000294B98428CBF0023012399E74FF496750F
:1013300005FB03F3254DA5FB03539B090133A6E7EA
:10134000A668BEB9431E05EB450CB3FBFCF30133A5
:10135000C3F30B03B3FA83F35B0943BBC6B9431E64
:1013600005EB4505B3FBF5F30133C3F30B0343F47E
:101370000043A3E7431E05EB850C0CEB8C0CB3FB81
:10138000FCF30133C3F30B03B3FA83F35B09E4E724
:10139000431E05EB850505EB8505B3FBF5F301332E
:1013A000C3F30B0343F4404388E7042386E7012398
:1013B00084E7012070470120ACE700BFA086010050
:1013C0007F841E0083DE1B43FF083D00D34D621067
:1013D00082B0002100910B4B5A6C42F480425A6457
:1013E0005A6C02F480420092009A01911A6C42F009
:1013F00080521A641B6C03F080530193019B02B06E
:10140000704700BF00380240002800F0E08170B54E
:1014100082B00446036813F0010F3BD09F4B9B68DA
:1014200003F00C03042B2CD09C4B9B6803F00C03A3
:10143000082B21D06368B3F5803F4FD0B3F5A02FC0
:1014400052D0964B1A6822F480321A601A6822F43D
:1014500080221A606368002B50D0FFF751FD0546CB
:101460008E4B1B6813F4003F14D1FFF749FD401B5E
:101470006428F5D90320B1E1884B5B6813F4800F31
:10148000D8D0864B1B6813F4003F03D06368002B51
:1014900000F09F81236813F0020F54D07F4B9B68AC
:1014A00013F00C0F3ED07D4B9B6803F00C03082B10
:1014B00033D0E368002B68D0794B01221A60FFF724
:1014C0001FFD0546754B1B6813F0020F54D1FFF743
:1014D00017FD401B0228F5D903207FE16F4A1368EE
:1014E00043F480331360B5E76C4B1A6842F48022F2
:1014F0001A601A6842F480321A60ABE7FFF700FD09
:101500000546664B1B6813F4003FC3D0FFF7F8FC99
:10151000401B6428F5D9032060E1604B5B6813F43D
:10152000800FC6D15D4B1B6813F0020F03D0E36838
:10153000012B40F05081594A136823F0F8032169C8
:1015400043EAC1031360236813F0080F42D06369B4
:101550006BB3534B0122C3F8802EFFF7D1FC054635
:101560004E4B5B6F13F0020F34D1FFF7C9FC401BE9
:101570000228F5D9032031E1484A136823F0F80323
:10158000216943EAC1031360DDE7454B00221A607D
:10159000FFF7B6FC0546414B1B6813F0020FD2D093
:1015A000FFF7AEFC401B0228F5D9032016E13C4BA7
:1015B0000022C3F8802EFFF7A3FC0546374B5B6F74
:1015C00013F0020F06D0FFF79BFC401B0228F5D951
:1015D000032003E1236813F0040F77D02F4B1B6C1B
:1015E00013F0805F33D1002301932C4B1A6C42F02F
:1015F00080521A641B6C03F080530193019B0125F8
:10160000284B1B6813F4807F23D0A368012B34D0B0
:10161000052B38D0214B1A6F22F001021A671A6F7E
:1016200022F004021A67A368002B3DD0FFF768FC84
:1016300006461A4B1B6F13F0020F46D1FFF760FCF2
:10164000801B41F288339842F3D90320C6E000257D
:10165000D6E7144A136843F480731360FFF750FC15
:101660000646104B1B6813F4807FCED1FFF748FC71
:10167000801B0228F5D90320B0E0084A136F43F01D
:1016800001031367CFE7054B1A6F42F004021A6794
:101690001A6F42F001021A67C5E700BF0038024026
:1016A0000000474200700040FFF72AFC0646524BFC
:1016B0001B6F13F0020F08D0FFF722FC801B41F2D2
:1016C00088339842F3D9032088E0EDB9A369002B51
:1016D00000F08380484A926802F00C02082A51D038
:1016E000022B17D0454B00221A66FFF709FC04466F
:1016F000414B1B6813F0007F42D0FFF701FC001B39
:101700000228F5D9032069E03B4A136C23F080538B
:101710001364DBE7394B00221A66FFF7F1FB05463D
:10172000354B1B6813F0007F06D0FFF7E9FB401B29
:101730000228F5D9032051E0E369226A1343626A63
:1017400043EA8213A26A5208013A43EA0243E26A78
:1017500043EA0263284A5360284B01221A66FFF7C6
:10176000CFFB0446244B1B6813F0007F06D1FFF724
:10177000C7FB001B0228F5D903202FE000202DE035
:1017800000202BE0012B2BD01B4B5B6803F4800166
:10179000E269914226D103F03F02216A8A4223D1B5
:1017A000616A47F6C0721A40B2EB811F1ED103F482
:1017B0004031A26A5208013AB1EB024F18D103F04E
:1017C0007063E26AB3EB026F14D1002006E00120DF
:1017D0007047012002E0012000E0002002B070BD4F
:1017E0000120FBE70120F9E70120F7E70120F5E7F9
:1017F0000120F3E70120F1E70038024000004742F2
:1018000008B5264B9B6803F00C03042B41D0082B32
:1018100041D1224B5A6802F03F025B6813F4800FFB
:1018200012D01E4B5968C1F388111D480023A1FB3B
:101830000001FFF799F9194B5B68C3F301430133CA
:101840005B00B0FBF3F008BD144B5868C0F3881080
:101850004FEA401CBCEB000C6EEB0E0E4FEA8E13F1
:1018600043EA9C634FEA8C11B1EB0C0163EB0E036E
:10187000DB0043EA5173C90011EB000C43F1000394
:10188000990200234FEA8C2041EA9C51FFF76CF942
:10189000D1E70348D7E70348D5E700BF0038024047
:1018A00040787D010024F400002800F09B8070B592
:1018B0000D4604464F4B1B6803F007038B4208D2CA
:1018C000CBB24C4A1370136803F007038B4240F00D
:1018D0008B80236813F0020F17D013F0040F04D08D
:1018E000454A936843F4E0539360236813F0080F6C
:1018F00004D0414A936843F4604393603E4A93683E
:1019000023F0F003A1680B439360236813F0010FE9
:1019100032D06368012B21D09A1E012A25D9364A7C
:10192000126812F0020F61D033498A6822F0030274
:1019300013438B60FFF7E4FA06462F4B9B6803F0D6
:101940000C036268B3EB820F16D0FFF7D9FA801B45
:1019500041F288339842F0D9032042E0264A1268C7
:1019600012F4003FE0D101203BE0234A126812F05C
:10197000007FD9D1012034E01E4B1B6803F0070320
:10198000AB4207D9EAB21B4B1A701B6803F007037E
:10199000AB422DD1236813F0040F06D0164A93688A
:1019A00023F4E053E1680B439360236813F0080FBE
:1019B00007D0114A936823F46043216943EAC103C5
:1019C0009360FFF71DFF0C4B9B68C3F303130B4A97
:1019D000D35CD8400A4B18600A4B1868FFF744FAEA
:1019E000002070BD012070470120FAE70120F8E7D0
:1019F0000120F6E7003C024000380240C44C0008D9
:101A00000800002004000020014B1868704700BF48
:101A10000800002008B5FFF7F7FF044B9B68C3F3ED
:101A20008223034AD35CD84008BD00BF003802407F
:101A3000BC4C000808B5FFF7E7FF044B9B68C3F3F5
:101A40004233034AD35CD84008BD00BF003802408F
:101A5000BC4C0008026802F10C0353E8003F23F479
:101A600090730C3242E800310029F3D1026802F190
:101A7000140353E8003F23F00103143242E800311D
:101A80000029F3D1036B012B05D0202380F84230CD
:101A9000002303637047026802F10C0353E8003F20
:101AA00023F010030C3242E800310029F3D1ECE7B7
:101AB00010B504460268136923F44053C1680B4310
:101AC0001361836802691A4343691A43C3691A435D
:101AD0000168CB6823F4164323F00C031343CB6057
:101AE0000268536923F4407381690B4353610368AF
:101AF000314A934206D002F58062934202D0FFF74A
:101B000089FF01E0FFF796FFE369B3F5004F29D0A5
:101B10000021031849411B1841F10001C90041EAA5
:101B20005371DB00181863684FEA83024FEA93731E
:101B300041F10001FFF718F8204AA2FB00314909E2
:101B4000642303FB11031B013233A2FB03235B0954
:101B500003F0F00202EB011203F00F0321681344BB
:101B60008B6010BD0023021843EB0301121841F1F2
:101B70000001C90041EA5271D200101841F1000180
:101B8000626892185B41FEF7EFFF0C4AA2FB00313E
:101B90004909642303FB1103DB003233A2FB032357
:101BA0005B095A0002F4F87202EB011203F007031A
:101BB000216813448B60D4E7001001401F85EB516E
:101BC0002DE9F04383B005460E4617469946DDF8E9
:101BD00028802B681C6836EA04040CBF012400240A
:101BE000BC4228D1B8F1FF3FF3D0FFF789F9A0EB51
:101BF0000900404523D8B8F1000F22D02B68DA68DD
:101C000012F0040FE5D0802EE3D0402EE1D01A6808
:101C100012F0080FDDD0002401941A6801925B686D
:101C20000193019B2846FFF715FF08236B6485F895
:101C30004040012000E0002003B0BDE8F083032015
:101C4000FAE70320F8E760B310B5044690F8413096
:101C500013B3242384F841302268D36823F400535B
:101C6000D3602046FFF724FF2268136923F49043D2
:101C700013612268536923F02A0353612268D368F1
:101C800043F40053D36000206064202384F8413083
:101C900084F84230606310BD80F8403000F0F6F800
:101CA000D7E7012070472DE9F04182B01E4690F839
:101CB0004130202B56D104460D469046002955D080
:101CC0000AB901204FE000234364212380F841300A
:101CD000FFF716F90746A4F82480A4F82680A36825
:101CE000B3F5805F02D04FF0000814E023692BB3F6
:101CF0004FF000080FE0202384F84130032032E049
:101D000038F8023B2268C3F308035360E28C92B2B6
:101D1000013A92B2E284E38C9BB293B100963B46C7
:101D2000002280212046FFF74BFF0028E3D1002D41
:101D3000E6D015F8012B23685A60E7E7A84600258E
:101D4000E9E700963B46002240212046FFF738FF96
:101D500018B9202384F8413005E0202384F841306D
:101D6000032000E0022002B0BDE8F0810120FAE784
:101D7000FEE7FEE7FEE7FEE7FEE7704770477047C5
:101D800008B5FFF7B1F808BD0120704708B500F0AD
:101D9000A1FF162303604FF0FF3008BD08B54FF0D8
:101DA000FF31FFF7F3FFFEE770B50C46164600253E
:101DB00006E0AFF30080214601F8010B01350C4627
:101DC000B542F6DB304670BD70B50C4616460025B0
:101DD00004E014F8010B00F093F80135B542F8DB8C
:101DE000304670BD4FF0FF3070474FF400534B60EA
:101DF00000207047012070470020704710B503464F
:101E00000C4A0D490D48006840B10C480068034475
:101E1000521A934206D8094A136010BD0748084C6D
:101E20000460F2E700F056FF0C2303604FF0FF3030
:101E3000F3E700BF00000220000400004802002079
:101E4000E0030020034AD2F8883043F47003C2F85C
:101E50008830704700ED00E008B50A480A4B03607F
:101E60004FF4E133436000238360C36003610C22BD
:101E700042618361C361FFF7E6FE00B908BDFEF76A
:101E80006BFFFBE74C0200200010014000B589B059
:101E9000002303930493059306930793026803F1C9
:101EA000804303F588339A4202D009B05DF804FB01
:101EB0000021019103F594335A6C42F010025A64E8
:101EC0005A6C02F010020192019A02911A6B42F0D0
:101ED00001021A631B6B03F001030293029B4FF490
:101EE000C0630393022304930323069307230793FA
:101EF00003A90248FFF788F8D7E700BF00000240B7
:101F000000B583B001904FF6FF73012201A9034889
:101F1000FFF7C9FE019803B05DF804FB4C020020F6
:101F2000DFF834D0FFF78EFF0C480D490D4A00232F
:101F300002E0D458C4500433C4188C42F9D30A4A7E
:101F40000A4C002301E013600432A242FBD300F0EC
:101F5000C7FEFEF759FF7047000002200000002076
:101F6000D4010020AC500008D4010020E003002080
:101F7000FEE72DE9FF4757EC106B002F0C46194682
:101F80003B46BBBF07F100431F4600232D230B70C8
:101F90000D9BDDF830A0914623F02008BCBF3246EF
:101FA0001646B8F1460F05D0B8F1450F00D10134FF
:101FB000022100E0032103AB019302AB009347EC45
:101FC000106B5346224600F03BFFB8F1470F054621
:101FD00019D119F0010F0ED000EB040900220023E3
:101FE00030463946FEF750FD08B1CDF80C9030224E
:101FF000039B4B451ED3039B0E9A5B1B2846136025
:1020000004B0BDE8F087B8F1460F00EB0409E5D154
:102010000378302B0AD10022002330463946FEF7E0
:1020200033FD18B9C4F10104CAF80040DAF80030F1
:102030009944D3E7591C03911A70D9E7F7B50029E1
:10204000BABF49422D232B2309290270437029DD91
:102050000DF1070425460A272246B1FBF7F607FBD8
:102060001613303302F8013C0B46632B04F1FF34A6
:102070003146F1DC3031931E04F8011C411C1C4632
:10208000AB420AD30DF109039B1AA54238BF0023C6
:10209000821C1344181A03B0F0BD13F8016B01F849
:1020A000016FEDE7302330318370C170031DF1E71C
:1020B0002DE9F04F8DB00C46DDF8588016461F46CE
:1020C000054600F0BDFD036806931846FEF7B0F81C
:1020D00000230A93D8F8003094F818A0D4F800B080
:1020E0000790073323F00703B3EC027B8DED047BED
:1020F000C8F80030DDE9048323F0004984ED127B49
:102100009C4B4FF0FF3240464946FEF7EFFC70BB58
:10211000984B4FF0FF3240464946FEF7C9FC30BBB2
:10212000DDE9040100220023FEF7B8FC10B12D23E5
:1021300084F84330904A914BBAF1470F8CBF9046D8
:102140009846032323612BF0040323604FF000091A
:10215000009733460BAA2146284600F0D1F90130FA
:1021600040F08C804FF0FF300DB0BDE8F08FDDE91E
:10217000042310461946FEF7B9FC40B1059B804A7E
:10218000002BBCBF2D2384F843307E4BD4E763681B
:102190005A1C0AF0DF093BD1062363604BF48062CE
:1021A0000023226003930AABCDE901A309AB00939E
:1021B00061689DED040B0DF123032846FFF7D9FE5E
:1021C000B9F1470F0999804629D1C81C02DB636821
:1021D0008B4241DAAAF1020A5FFA8AFA01395246C1
:1021E00004F150000991FFF729FF0A9A1318012AF8
:1021F0008146236102DC2268D20701D501332361C5
:102200009DF82330002BA3D02D2384F843309FE783
:10221000B9F1470FC2D1002BC0D10123BDE7BAF1FC
:10222000650FDBD9BAF1660F18D1002963680BDDA1
:10223000216113B92268D00702D501330B44236111
:10224000A1654FF00009DBE713B92268D20701D579
:102250000233F4E70123F2E74FF0670A0A9B8B424F
:1022600005DC23682161D807EAD54B1CE7E7002984
:10227000D4BFC1F1020201221344E0E723685A05EA
:1022800007D42369424631462846B84701302BD14E
:1022900068E7BAF1650F40F2DD80D4E9120100224F
:1022A0000023FEF7F1FB002833D0374A01233146E3
:1022B0002846B84701303FF455AFDDE909384345BA
:1022C00002DB2368D8070FD5DDE90623314628460F
:1022D000B84701303FF446AF4FF0000908F1FF382E
:1022E00004F11A0AC84509DC23689B0700F1038141
:1022F000E0680B9B9842B8BF184635E70123524669
:1023000031462846B84701303FF42CAF09F10109A6
:10231000E8E7099B002B39DC1B4A0123314628469C
:10232000B84701303FF41EAFDDE9093959EA03032C
:1023300002D12368D907D7D5DDE9062331462846DF
:10234000B84701303FF40EAF4FF0000A04F11A0B0A
:10235000099B5B42534501DC4B4693E701235A46F8
:1023600031462846B84701303FF4FCAE0AF1010A75
:10237000EEE700BFFFFFEF7FD84C0008D44C000809
:10238000E04C0008DC4C0008E44C0008A36DDDF8CC
:1023900028A05345A8BF5346002B994636DC4FF082
:1023A000000B29EAE97904F11A02A36D0493A3EB67
:1023B00009035B4531DC099B9A453ADC2368DA075F
:1023C00037D4099BAAEB0309049BAAEB03039945A5
:1023D000A8BF9946B9F1000F33DC4FF0000829EA95
:1023E000E97904F11A0B099BAAEB0303A3EB090398
:1023F00043457FF779AF01235A4631462846B8470F
:1024000001303FF4AFAE08F10108ECE74246314637
:102410002846B8470130C2D1A4E6012331462846F8
:102420000492B84701303FF49DAE049A0BF1010BC2
:10243000BBE7DDE9062331462846B8470130C0D165
:1024400090E6049A4B46424431462846B84701304C
:10245000C3D187E6DDF828A0BAF1010F01DCDB0764
:1024600036D50123424631462846B84701303FF46D
:1024700079AEDDE9062331462846B84701303FF4FE
:1024800071AED4E91201002200230AF1FF3AFEF7EF
:10249000FBFAC0B9534608F1010231462846B84755
:1024A00001300CD15EE601235A4631462846B84732
:1024B00001303FF457AE08F10108D045F3DB4B463D
:1024C00004F15002DFE64FF0000804F11A0BF4E7C4
:1024D00001234246E1E701234A4631462846B847F0
:1024E00001303FF43FAE08F10108E3680B995B1A35
:1024F0004345F0DCFCE64FF0000804F11909F4E76D
:102500002DE9F047164698468A680B69DDF8209059
:102510009342B8BF1346336091F8432007460C46F8
:102520000AB1013333602368990642BF336802332E
:102530003360256815F0060506D104F1190AE36831
:1025400032689B1AAB4226DC94F843302268003B89
:1025500018BF012392062BD404F1430241463846AA
:10256000C84701301ED02368226903F00603042BFC
:1025700002BFE5683368ED1AA3680CBF25EAE5756C
:1025800000259342C4BF9B1AED1800261A34B542A9
:102590001AD1002008E00123524641463846C84778
:1025A000013003D14FF0FF30BDE8F0870135C6E7B9
:1025B000E1185A1C302081F84300224494F8451059
:1025C00082F843100233C7E70123224641463846CA
:1025D000C8470130E6D00136D9E700002DE9FF47B2
:1025E0000F7E0C9E782F914680460C469A4601F14C
:1025F000430207D8622F0AD8002F00F0D280582F4C
:1026000000F0B78004F1420684F842703AE0A7F186
:102610006303152BF6D801A151F823F075260008A5
:10262000892600080526000805260008052600085A
:10263000052600088926000805260008052600084A
:10264000052600080526000889270008B32600088B
:102650003F2700080526000805260008AB270008CC
:1026600005260008B32600080526000805260008F0
:102670004727000833681A1D1B68326004F14206C0
:1026800084F8423001239DE033682068191D3160D1
:10269000060601D51D6803E04506FBD5B3F90050D9
:1026A000002D03DA2D236D4284F8433059480A2364
:1026B00010E021683368080653F8045B02D4490629
:1026C00048BFADB26F2F5348336059D10823002162
:1026D00084F843106668A660002E05DB21682E434F
:1026E00021F0040121604DD01646B5FBF3F103FB48
:1026F0001157C75D06F8017D2F46BB420D46F4D940
:10270000082B0BD12368DF0708D52369616899423C
:10271000DEBF302306F8013C06F1FF36921B226132
:10272000CDF800A04B4603AA21464046FFF7E8FE3D
:1027300001304CD14FF0FF3004B0BDE8F087236882
:1027400043F0200323603448782784F845702368D9
:1027500031681F0651F8045B02D45F0648BFADB272
:102760003160D90744BF43F0200323601DB110231B
:10277000ADE72848E9E7236823F020032360F6E764
:102780000A23A4E71646BBE7336825686169181D6C
:1027900030602E061B6801D5196002E06806FBD583
:1027A0001980002323611646BAE733681A1D326088
:1027B0001E68626800213046FDF7EAFC08B1801B04
:1027C000606063682361002384F84330A8E72369CD
:1027D000324649464046D0470130ABD023689B077C
:1027E00013D4E068039B9842B8BF1846A4E70123BE
:1027F000324649464046D04701309BD00135E36818
:1028000003995B1AAB42F2DCEBE7002504F11906F1
:10281000F5E700BFE64C0008F74C0008002310B5B0
:102820000446C0E90033C0E9043383608181436614
:10283000C2818361194608225C3000F0F9F90D4B22
:1028400063620D4BA3620D4BE3620D4B23630D4B93
:1028500024629C4206D003F16802944202D0D03335
:102860009C4205D104F15800BDE8104000F05CBA6C
:1028700010BD00BF852A0008A72A0008DF2A00082B
:10288000052B000894020020024A0349034800F087
:102890006BB800BF0C000020994600081C00002007
:1028A00041680C4B994210B5044601D001F0F4FE8A
:1028B000A168094B994202D0204601F0EDFEE16883
:1028C000064B994204D02046BDE8104001F0E4BE1A
:1028D00010BD00BF94020020FC0200206403002011
:1028E0000C4B0D4A0D4810B504211A600022FFF769
:1028F00095FF0A4B01221C46092103F16800FFF7EE
:102900008DFF04F1D0000222BDE810401221FFF734
:1029100085BF00BFCC030020892800089402002056
:10292000014800F002BA00BFD5030020014800F0C2
:10293000FDB900BFD503002010B50446FFF7F0FF36
:10294000236A1BB1BDE81040FFF7F0BF044B2362C0
:10295000044B1B68002BF5D1FFF7C2FFF2E700BF65
:10296000A1280008CC0300202DE9F843074688463B
:1029700014460026D4E90195B9F1010905D524686A
:10298000002CF7D13046BDE8F883AB89012B07D97D
:10299000B5F90E30013303D029463846C047064307
:1029A0006835E9E70FB407B5064904AB086853F882
:1029B000042B8168019301F0D5FC03B05DF804EBB2
:1029C00004B0704718000020036A70B5846805469B
:1029D0000E460BB9FFF7B0FF636EDB0705D4A38982
:1029E000980502D4A06D00F0A0F9A389190702D5BB
:1029F0002369002B35D12146284600F0C5F880B365
:102A00004FF0FF35636EDA0705D4A3899B0502D426
:102A1000A06D00F08BF9284670BD002B04DAA26986
:102A2000934217DB0A2915D023685A1C22601970BB
:102A3000A36816F8011F013BA3600029EDD1002B0C
:102A400011DA22460A21284600F060F80130D7D07A
:102A50000A25D7E72246284600F058F80130E7D18A
:102A6000CEE7013EE4E723685A1C22600A221A706E
:102A7000EEE70000024B01461868FFF7A5BF00BF54
:102A80001800002010B50C46B1F90E1000F0FEF849
:102A90000028ABBF636DA3891B1823F48053ACBF20
:102AA0006365A38110BD2DE9F0411F468B89DB05CD
:102AB00005460C46164605D5B1F90E100223002234
:102AC00000F0D2F8A389B4F90E1023F48053A38147
:102AD00032463B462846BDE8F04100F0E9B810B563
:102AE0000C46B1F90E1000F0BFF8B4F90C30421CDE
:102AF0000BBF23F4805343F48053A381A38118BFF9
:102B0000606510BDB1F90E1000F09EB8F8B50E4624
:102B10001446054618B1036A0BB9FFF70DFFA36908
:102B2000A360A3891A0701D5236943B92146284622
:102B300000F02AF818B14FF0FF373846F8BD236887
:102B40002269981A6369F6B28342374605DC21464A
:102B5000284601F0A1FD0028EDD1A368013BA36048
:102B600023685A1C22601E706269431C9A4204D07A
:102B7000A389DB07E1D50A2EDFD12146284601F0E3
:102B80008BFD0028D9D0D6E738B5284B0546186804
:102B90000C4618B1036A0BB9FFF7CEFEB4F90C303E
:102BA0001A0721D4D80607D409222A6043F040032B
:102BB000A3814FF0FF3030E0590712D5616B41B16E
:102BC00004F14403994202D0284600F019FF002383
:102BD00063630022B4F90C3062602269226023F042
:102BE000240343F00803A38122693AB99A0501D569
:102BF000180603D52146284601F09AFDB4F90C3099
:102C000013F001020AD00022A26062695242A2615E
:102C1000226942B913F08000C8D138BD990758BF66
:102C20006269A260F4E70020F7E700BF1800002007
:102C300002440346934200D1704703F8011BF9E7B1
:102C4000004870475801002038B5064D002304465F
:102C500008462B60FFF7C6F8431C02D12B6803B16E
:102C6000236038BDD003002038B5074D0446084620
:102C7000114600222A601A46FFF7BEF8431C02D113
:102C80002B6803B1236038BDD003002038B5074D51
:102C900004460846114600222A601A46FFF784F8C7
:102CA000431C02D12B6803B1236038BDD003002040
:102CB00038B5074D04460846114600222A601A46D8
:102CC000FFF782F8431C02D12B6803B1236038BDA3
:102CD000D0030020014B1868704700BF1800002087
:102CE00070B50D4B0D4D5B1B9C100026A64209D103
:102CF00001F0C4FF0A4D0B4B5B1B9C100026A64243
:102D000005D170BD55F8043B98470136EEE755F8FC
:102D1000043B98470136F2E7A4500008A45000088D
:102D2000A4500008A85000087047704770472DE96C
:102D3000F74F03690C69A34207467EDB013C01F1B2
:102D40001408A30000F11405009305EB840301931C
:102D500058F8243055F8242001339A4208EB8409AE
:102D6000B2FBF3F62ED34FF0000AC446AE46D3466C
:102D70005CF8043B98B206FB00A0020C1B0C06FB9F
:102D80000323DEF8002080B292B2121A5A44DEF811
:102D900000004FEA134A9BB2C3EB224303EB1043FC
:102DA00092B242EA0342E1454EF8042B4FEA234B2C
:102DB000DED2009BEB582BB9019B043B9D421A4687
:102DC0002FD33C61384601F097F9002825DB2946CE
:102DD000002058F8042BD1F800C01FFA82FE1FFA19
:102DE0008CF3A3EB0E030344120CC2EB234202EB61
:102DF0001C429BB243EA0243C14541F8043B4FEAFF
:102E00002240E6D255F8242005EB840322B9043B86
:102E10009D421A460BD33C610136304603B0BDE8F3
:102E2000F08F1268043B002ACBD1013CC6E7126840
:102E3000043B002AEFD1013CEAE70020EEE7000066
:102E40002DE9F04F99B08DED0E0B0C92C269229CCA
:102E50000A9157EC106B8146139382B9102000F051
:102E600019FE0246C9F81C0020B9AD4BEF21AD4850
:102E700001F0D8FC0023C0E901330360C36011688E
:102E800059B152684A60012393408B60484600F074
:102E9000F5FED9F81C3000221A60B7F10008B5BF62
:102EA00001230023236023609F4BBCBF28F0004810
:102EB000CDF83C8033EA08031AD1139AC8F31308FB
:102EC00042F20F7358EA0608136000F06C85239BEA
:102ED00053B9964B21E0964B00930833239A136025
:102EE000009819B0BDE8F08F904B00930333F5E7DD
:102EF0009DED0E7B002251EC170B00238DED067B20
:102F0000FDF7C2FD824650B1139A01231360239B43
:102F100013B1239A874B1360874B0093E0E79DED35
:102F2000060B16AA17A9484601F09AF95FEA185449
:102F3000169D019079D0079BCDF850A0C3F31303E1
:102F4000DDE9060143F07F5343F44013A4F2FF345C
:102F500019460022794BFDF777F96BA3D3E90023DB
:102F6000FDF72AFB6AA3D3E90023FDF76FF90646B4
:102F700020460F46FDF7B6FA67A3D3E90023FDF715
:102F80001BFB02460B4630463946FDF75FF9064605
:102F90000F46FDF7C1FD002280460023304639462A
:102FA000FDF77CFD48B14046FDF79CFA32463B46B2
:102FB000FDF76AFD08B908F1FF38B8F1160F51D8CE
:102FC0005F4B03EBC803D3E90023DDE90601FDF7FE
:102FD00065FD002848D008F1FF38002312932D1B0F
:102FE0006B1E089343BF0023C5F101070893002718
:102FF000B8F1000F3ADB089BCDF8348043440893C6
:10300000002309930A9B092B64D8052BC4BF043BFA
:103010000A930A9BA3F10203CCBF00240124032BD3
:1030200064D8DFE803F05355362B179C2C4404F288
:103030003243202BC1BFC3F1400308FA03F804F266
:10304000124326FA03F3D6BFC3F1200348EA030074
:1030500006FA03F0FDF736FA0122A1F1F873013CFC
:10306000149275E70123B9E71290B8E7C8F100039D
:1030700009930023A7EB08070D93C3E701230B93E4
:103080000C9B434405930133012B0493B8BF0123E8
:1030900006E001230B930C9B002B2ADDCDE90433C2
:1030A000D9F81C000021042202F114059D4201F10F
:1030B000010623D94160484600F0A2FD0090002897
:1030C00042D1204B024640F2AF11D0E60023E1E7A7
:1030D0000023D4E701240023CDE90A344FF0FF3365
:1030E000CDE90433002212230C92D9E701230B937C
:1030F000F4E70123CDE904331A46F5E752003146DF
:10310000D2E700BFAFF3008061436F63A787D23F70
:10311000B3C8608B288AC63FFB799F501344D33FC6
:10312000154D00082C4D00080000F07F114D0008DF
:10313000084D0008E54C0008E44C00080000F83F8A
:10314000D04E0008AE4D0008D9F81C30009A1A6025
:10315000049B0E2B00F2A180002C00F09E80B8F1A1
:10316000000F36DD9E4B08F00F0203EBC20318F48C
:10317000807FD3E900AB4FEA281516D0994BDDE9E3
:103180000601D3E90823FDF741FBCDE9020105F073
:103190000F050324934E75B9DDE9020152465B46E3
:1031A000FDF734FB82468B462DE09DED067B022425
:1031B0008DED027BEEE7E90708D550465946D6E982
:1031C0000023FDF7F9F9013482468B466D1008366D
:1031D000E1E700F0AD80C8F10005814B814E05F0BC
:1031E0000F0203EBC203D3E90023DDE90601FDF77B
:1031F000E3F92D1182468B4600230224002D40F076
:103200008C80002BCED1129B002B00F09580764B4A
:10321000002250465946FDF741FC002800F08C8002
:10322000049B002B00F08880059B002B35DD08F106
:10323000FF330293504659466C4B0022FDF7BCF910
:10324000059E82468B4601342046FDF74BF95246D7
:103250005B46FDF7B1F9664B0022FCF7F7FF044629
:10326000A1F15075CDE91045002E69D1614B0022C6
:1032700050465946FCF7E8FF22462B4682468B46CD
:10328000FDF72AFC002840F09482224605F1004315
:1032900050465946FDF702FC20BB179B002BC0F29D
:1032A0006081B8F10E0F00F35C814D4B03EBC80356
:1032B000D3E900AB0C9B002B80F2EE80049B002B2B
:1032C00000F3EA800ED14B4B002250465946FDF7E1
:1032D00073F902460B46DDE90601FDF7E9FB00281C
:1032E00000F06A8200252C460C9B009EDB43029373
:1032F000274600242946484600F0C0FC002F00F075
:10330000C1802CB1BC4203D02146484600F0B6FC37
:103310003946484600F0B2FCB4E0EA0705D5D6E9E4
:103320000023FDF749F9013401236D10083665E7E4
:10333000DDE906AB022466E7049ECDF8088083E74A
:10334000274B03EBC60353E902010B9B002B55D01F
:1033500002460B4600202849FDF758FADDE9102304
:10336000FCF772FF009BCDE910019D191E465946DE
:103370005046FDF7D1FB0446FDF7B4F802460B4674
:1033800050465946FCF760FF3034DDE9102306F85B
:10339000014B82468B46FDF781FB002872D15246D5
:1033A0005B4611490020FCF74FFFDDE91023FDF7D4
:1033B00075FB002840F0B680AE423FF46EAFDDE909
:1033C00010010A4B0022FDF7F7F8084BCDE9100178
:1033D000002250465946FDF7EFF882468B46C6E775
:1033E000D04E0008A84E00080000F03F0000244026
:1033F00000001C40000014400000E03FDDE9102305
:10340000FDF7DAF8009B009DCDE9100133441593D8
:1034100059465046FDF780FB0446FDF763F830340B
:103420000B46024659465046FCF70EFF05F8014B85
:10343000159B9D4282468B4627D1009B0022DDE9E9
:1034400010011E44B34BFCF701FF02460B465046E9
:103450005946FDF741FB002864D1DDE91023AD4951
:103460000020FCF7F1FE02460B4650465946FDF798
:1034700015FB00283FF411AF334616F8012D302A12
:10348000FAD01E46DDF808803AE0A34B0022FDF793
:1034900093F882468B46BBE7009E52465B46DDE9C9
:1034A0000601FDF7B3F9FDF737FB0746FDF71AF8FC
:1034B00052465B46FDF780F802460B46DDE9060101
:1034C000FCF7C2FE07F1300C009C06F801CBA6EB1E
:1034D000040C049C644502460B4633D1FCF7B6FE4F
:1034E00052465B4604460D46FDF7F6FAC0B9524611
:1034F0005B4620462946FDF7C7FA08B1FB070FD403
:103500000199484600F0BAFB0023139A337008F182
:1035100001031360239B002B3FF4E2AC1E60DFE449
:10352000CDF8088033461E4613F8012D392A06D1FE
:10353000009A9A42F7D1029A013202923022013265
:103540001A709FE7744B0022FDF736F802460B46CF
:10355000CDE9062300220023FDF796FA00289CD02F
:10356000CEE70B9A002A00F0E3800A9A012A00F3C2
:10357000C280149A002A00F0BA8003F23343099DF6
:103580003E46089A01211A4448461F44089200F01A
:1035900029FC044656B1089B002B07DDB342089A6C
:1035A000A8BF3346FF1AF61AD31A0893099B0BB328
:1035B0000B9B002B00F0C380002D00F0BD80214646
:1035C0002A46484600F0CEFC019A01460446484689
:1035D00000F01EFC01998246484600F04FFB099B13
:1035E0005B1B099300F0AE80099A5146484600F0F3
:1035F000B9FC01900121484600F0F4FB0D9B054603
:10360000002B00F0D7811A460146484600F0AAFC7C
:103610000A9B012B054600F39D800E9B002B40F07A
:1036200094800F9BC3F31303002B40F08E800F9BFD
:1036300023F000431B0D1B05002B00F08980089B25
:103640000133013708934FF0010A0D9B002B00F066
:10365000B7812B6905EB8303186900F077FBC0F194
:103660002000089B184410F01F007ED0C0F12003FA
:10367000042B72DD089BC0F11C0003440744064480
:103680000893002F05DD01993A46484600F0C6FC34
:103690000190089B002B05DD29461A46484600F09C
:1036A000BDFC0546129B002B61D00198294600F015
:1036B00023FD00285BDA08F1FF3302930199002310
:1036C0000A22484600F0FCFA0B9B0190002B00F008
:1036D0007981002321460A22484600F0F1FA059B31
:1036E000002B044672DC0A9B022B49DC6EE0169B21
:1036F000C3F1360343E7049B5D1E099BAB420DDB20
:103700005D1B049B002BBFF63BAF049BFE1A0023FE
:1037100037E700BF0000E03F00002440099B0D9AFE
:103720000995EB1A1A440D92049B3E46002528E7A2
:10373000099D0B9C3E462DE7DDF804A054E7099A4D
:10374000019953E7CDF804A054E74FF0000A7CE755
:103750009A467AE74FF0000A7BE792D0089A1C332A
:103760001A441F441E4408928BE70346F6E7049B65
:10377000CDF80880002B23DC05930A9B022B21DD6A
:10378000059B002B7FF4B0AD29460522484600F08A
:1037900097FA01460546019800F0AEFC00287FF735
:1037A000A3AD009E312306F8013B029B0133029337
:1037B0009EE535462C46F4E7049DCDF80880F9E7F0
:1037C000049B05930B9B002B00F00081002E05DD70
:1037D00021463246484600F021FC0446BAF1000F6B
:1037E0005AD06168484600F00BFA064628B9824B69
:1037F000024640F2EF21FFF73ABB22690232920003
:1038000004F10C010C3000F0FFFF01223146484664
:1038100000F004FC0746009B009A03F1010B059B96
:10382000134406930E9B03F0010308930BF1FF333F
:10383000294601980493FFF77AFA2146059000F192
:10384000300A019800F058FC3A468046294648461E
:1038500000F06EFCC268064602BB0146019800F00B
:103860004BFC024631464846099200F007FADDE972
:10387000092342EA0301089B19435E4610D1BAF1BD
:10388000390F2BD0B8F1000F02DD059B03F1310A8F
:10389000049B83F800A02DE52746BCE70122E1E761
:1038A000B8F1000F06DB0A9B48EA0308089B58EAB8
:1038B000030820D1002AEBDD01990122484600F0DF
:1038C000ADFB2946019000F017FC002803DCDFD196
:1038D0001AF0010FDCD0BAF1390FD6D1049A39238E
:1038E000137033461E46013B16F8012C392A52D07C
:1038F00001321A70FEE4002A07DDBAF1390FEDD06B
:10390000049A0AF101031370F4E4069B0BF801AC6E
:103910005B452AD0019900230A22484600F0D0F9DD
:10392000BC4201904FF000034FF00A022146484686
:1039300006D100F0C5F9044607460BF1010B75E707
:1039400000F0BEF93946044600230A22484600F03A
:10395000B7F90746F1E7059B5E1E002B009BD8BF19
:1039600000265A1C27461644002401990122484685
:1039700000F054FB2946019000F0BEFB0028B0DCAB
:1039800002D11AF0010FACD133461E4613F8012DB7
:10399000302AFAD0AEE4009A9A42A3D1029B0133B6
:1039A00002933123AFE7239B002B7FF494AA134BA0
:1039B000FFF7B3BA0A9B012B7FF72FAEDDF834A0D7
:1039C00001204EE6059B002B7FF7D7AE009E0198A5
:1039D0002946FFF7ACF900F1300A009B06F801AB6D
:1039E000F21A059B9342B6DD019900230A2248464C
:1039F00000F066F90190EAE7AE4D0008084D0008B6
:103A000038B50546002941D051F8043C0C1F002B65
:103A1000B8BFE41800F0E8F81D4A136833B96360D2
:103A200014602846BDE8384000F0E4B8A34208D945
:103A3000206821188B4201BF19685B680918216052
:103A4000EDE71A465B680BB1A342FAD9116850182A
:103A5000A0420BD120680144501883421160E0D18C
:103A600018685B68536008441060DAE702D90C23D9
:103A70002B60D6E7206821188B4204BF19685B6869
:103A8000636004BF091821605460CAE738BD00BFF5
:103A9000DC030020024B0146186800F025B800BF87
:103AA0001800002070B50F4E0C463168054611B95C
:103AB00000F09AFE30602146284600F095FE431C37
:103AC00003D14FF0FF34204670BDC41C24F0030422
:103AD000A042F8D0211A284600F086FE0130F2D12B
:103AE000EFE700BFD80300202DE9F843CD1C25F0F7
:103AF000030508350C2D38BF0C25002D064601DBCB
:103B0000A94204D90C2333600020BDE8F883DFF814
:103B1000D48000F069F8D8F800301C4644BB294630
:103B20003046FFF7BFFF431C044658D1D8F8004089
:103B30002746002F43D1002C4BD02368394630460E
:103B400004EB030900F050FE814542D121686D1A53
:103B500029463046FFF7A6FF01303AD023682B44B0
:103B60002360D8F800305A6862BBC8F800700FE0D4
:103B70002268521B20D40B2A17D96119A342256051
:103B800018BF5960636808BFC8F8001062514B60E5
:103B9000304600F02FF804F10B00231D20F0070041
:103BA000C21A1CBF1B1AA350AFE76268A3420CBF26
:103BB000C8F800205A60EBE723466468AEE73C464D
:103BC0007F68B6E71A465B68A342FBD100235360C7
:103BD000DEE70C233360304600F00CF894E7056014
:103BE000D6E700BFDC0300200148FFF79EB800BF06
:103BF000D40300200148FFF799B800BFD403002088
:103C000070B5C46905460E4684B91020FFF742FF1F
:103C10000446E86128B90246164B17486B2100F0AC
:103C200001FE0023C0E901330360C360E36853B9B8
:103C300021220421284600F013FEEB69E060DB68D6
:103C40000BB9002070BD53F8260030B1026843F86C
:103C500026200023C0E90333F4E7012101FA06F42A
:103C6000621D9200284600F0FBFD0028E9D0C0E963
:103C70000164EEE7154D0008BF4D000870B5C66938
:103C800005460C4676B91020FFF704FF0246E861AE
:103C900020B9094B09488F2100F0C4FDC0E9016635
:103CA0000660C6603CB1EB696268DB6853F82210BD
:103CB000216043F8224070BD154D0008BF4D00083B
:103CC0002DE9F0410D6907460C461E4601F1140C22
:103CD0000020DCF8003099B202FB01611E0C0B0CD5
:103CE00002FB063389B2013001EB034185424CF8F7
:103CF000041B4FEA1346ECDC0EB3A368AB4219DC9D
:103D0000616838460131FFF77BFF804628B90246DB
:103D10000C4B0D48BA2100F085FD2269023204F1F6
:103D20000C0192000C3000F06FFD21463846FFF781
:103D3000A5FF444604EB850301355E6125612046FD
:103D4000BDE8F081AE4D0008BF4D0008B0F5803FE2
:103D5000034636BF030400201020B3F1807F3CBF30
:103D60001B020830B3F1805F3CBF1B010430B3F18C
:103D7000804F3CBF9B000230002B05DB13F0804FCF
:103D800000F1010008BF202070470368024613F0CD
:103D900007000BD0D90721D4980749BF5B089B08BF
:103DA000012013605CBF13600220704799B209B90B
:103DB0001B0C1020D9B209B908301B0A190704BF1F
:103DC0001B090430990704BF9B080230D90703D4AC
:103DD0005B0800F1010003D01360704700207047BA
:103DE0002020704710B50C460121FFF709FF02465D
:103DF00028B9054B054840F2451100F013FD012399
:103E00004461036110BD00BFAE4D0008BF4D000806
:103E10002DE9F04FD1F81090D2F810A0D14585B01F
:103E20008846144604DB53460C46CA4690469946DB
:103E3000A36861680AEB0906B342B8BF0131FFF716
:103E4000DFFE30B90246454B45484FF4B17100F0F2
:103E5000E9FC00F1140505EB86072B460022BB4266
:103E60001FD304F1140C08F114010CEB8A0301EBCD
:103E7000890202921A1B153A22F0030215349C4261
:103E800088BF00220192029A03918A420CD8002E28
:103E900003DD57F8043D002B5DD0066105B0BDE899
:103EA000F08F43F8042BDAE7B1F800A0BAF1000F65
:103EB00024D0E046A9464FF0000E58F8042BD9F85C
:103EC00000401FFA82FBA4B20AFB0B444FEA124BDC
:103ED000D9F8002074444FEA124E0AFB0BE202EBC1
:103EE0001442A4B244EA0244434549F8044B4FEA61
:103EF000124EE2D8019AAA18C2F804E0039AB2F866
:103F000002800431B8F1000F23D02A68E6469146BA
:103F1000AA464FF0000BBEF8004008FB04B404EBC7
:103F2000194492B242EA04424AF8042B5EF8042B88
:103F3000DAF800904FEA124B1FFA89F208FB0B22C5
:103F400002EB144273454FEA124BE4D8019C2C1942
:103F50006260043597E7013E99E700BFAE4D000867
:103F6000BF4D00082DE9F843174612F003028046C2
:103F70000D4607D0264C013A002354F82220FFF7C3
:103F80009FFE0546BF103FD0D8F81C4094B91020C2
:103F9000FFF780FD0446C8F81C0030B902461D4BEF
:103FA0001D4840F2B31100F03DFC0023C0E901338D
:103FB0000360C360A66846B940F271214046FFF72E
:103FC00011FF0023A060064603602C464FF0000955
:103FD00007F001037F1053B1294632464046FFF7F0
:103FE00017FF214605464046FFF748FE67B1306897
:103FF00038B9324631464046FFF70AFF3060C0F814
:10400000009006462C46E3E72846BDE8F88300BF4B
:104010009C4E0008154D0008BF4D00082DE9F84FD3
:104020000C464968236903EB6218A36807461546E6
:104030004FEA621A08F101094B450BDB3846FFF7DE
:10404000DFFD064648B90246294B2A484FF4EF7176
:1040500000F0E8FB01315B00EEE7002300F1140CF7
:1040600000F110021946534535DB22692AEAEA7A43
:104070000CEB8A0C04F1140315F01F0E614603EBE0
:1040800082022CD0CEF1200A002518688B4600FA57
:104090000EF02843CBF8000053F8045B9A4201F17C
:1040A000040125FA0AF5F0D8131B153B23F003038E
:1040B00004F115018A4238BF00239C44CCF8045017
:1040C00005B9C1463846C6F810902146FFF7D6FD1F
:1040D0003046BDE8F88F42F8041F0133C3E753F8B8
:1040E000045B0D609A4201F10401F8D8E9E700BFD2
:1040F000AE4D0008BF4D00080A6903460069801AEA
:1041000030B50ED11433143103EB820401EB82017C
:1041100054F8045D51F8042D954203D005D24FF0B8
:10412000FF3030BDA342F3D3FBE70120F9E70000E5
:104130002DE9F74F8A460646114650461446FFF7CA
:10414000DBFF051E12D129463046FFF759FD024616
:1041500028B9414B40F23721404800F063FB01236E
:10416000C0E90435104603B0BDE8F08FBCBF53462C
:10417000A2463046DAF80410BABF1C4601250025D5
:10418000FFF73EFD024618B9334B40F24521E3E705
:10419000DAF810702669C5600AF1140904F1140EEA
:1041A00000F114050AF1100309EB87080EEB8606EF
:1041B0000193AB464FF0000C019B5EF8040B53F8E3
:1041C00004AF01931FFA8AF3194683B2CB1A000C8D
:1041D0006344C0EB1A4000EB23409BB243EA004328
:1041E00076454BF8043B4FEA204CE5D8331B153B92
:1041F000153423F00303A64238BF0023E8184B44CC
:104200001C1D04302646A5EB0905464506EB050EA8
:104210000ED308F10301091B21F003010133984576
:1042200038BF0021014451F8043D9BB1176199E763
:1042300056F8041BE2464FEA11491CFA81FC51442E
:1042400009EB2C4989B241EA09414FEA294CCEF8E1
:104250000010DAE7013FE6E7AE4D0008BF4D000869
:104260002DE9F7430F46012159EC108B1646FFF755
:10427000C7FC044630B90246234B244840F20F31B4
:1042800000F0D0FAC9F30A55C9F313030DB143F492
:1042900080130193B8F1000323D068460093FFF721
:1042A00074FD0099D8B1019AC0F1200302FA03F31A
:1042B0000B43C24063610192019BA361002B0CBFC1
:1042C000012202222261A5B1A5F2334505443D60D9
:1042D000C0F135003060204603B0BDE8F083616175
:1042E000EAE701A8FFF751FD019B6361203001223D
:1042F000E8E704EB8203A0F2324038601869FFF768
:1043000025FDC0EB4210E5E7AE4D0008BF4D0008AB
:104310009368013B002B10B4936008DA9469A342C0
:1043200001DB0A2903D15DF8044BFEF7EFBB1368EC
:10433000581C1060197008465DF8044B7047F8B5BA
:1043400006460F461446D518AC4201D1002007E0BE
:1043500014F8011B3A463046FFF7DAFF431CF3D14D
:10436000F8BD00002DE9F04F0D469DB0144698466B
:10437000064618B1036A0BB9FEF7DEFA6B6ED90771
:1043800005D4AB899A0502D4A86DFEF7CEFCAB89A3
:104390001B0701D52B699BB929463046FEF7F4FB74
:1043A00070B16B6EDC0704D54FF0FF301DB0BDE877
:1043B000F08FAB899805F7D4A86DFEF7B7FCF3E74B
:1043C0000023099320238DF82930CDF80C80302369
:1043D000DFF8AC818DF82A304FF0010923469A4668
:1043E00013F8012B0AB1252AF9D1BAEB040B0BD033
:1043F0005B46224629463046FFF7A1FF013000F018
:10440000A780099A5A4409929AF80030002B00F0CC
:104410009F8000234FF0FF32CDE905230AF1010A06
:10442000049307938DF853301A935446052214F8D9
:10443000011B5348FBF7ACFE049AD8B9D10644BF20
:1044400020238DF85330130744BF2B238DF85330AE
:104450009AF800302A2B15D0079A544600204FF0C6
:104460000A0C214611F8013B303B092B4BD9B0B166
:10447000079214E0A0EB080309FA03F31343049333
:10448000A246D2E7039B191D1B680391002BBBBFFB
:104490005B4242F0020207930793B8BF049223786D
:1044A0002E2B0AD163782A2B32D1039B1A1D1B684D
:1044B000039243EAE37302340593DFF8D4A0217832
:1044C00003225046FBF764FE38B1049BA0EB0A00C0
:1044D0004022824013430134049314F8011B2948FD
:1044E0008DF828100622FBF753FE00283FD0264BFC
:1044F0001BBB039B073323F0070308330393099B7C
:104500003B4409936AE70CFB02320C460120A8E702
:1045100000230134059319464FF00A0C204610F889
:10452000012B303A092A03D9002BC6D00591C4E7E4
:104530000CFB012104460123F0E703AB00932A465C
:10454000124B04A93046FDF7B3FD0746781CD6D1BF
:104550006B6ED90705D4AB899A0502D4A86DFEF716
:10456000E5FBAB895B063FF51FAF09981EE703AB80
:1045700000932A46054B04A93046FEF72FF8E4E7DE
:10458000424E00084C4E0008B12000083F4300088E
:10459000484E0008B1F90C202DE9F04116070546F8
:1045A0000C4651D44B68002B02DC0B6C002B49DD10
:1045B000E66A002E46D0002312F480522F682B604A
:1045C00031D0626DA389590705D56368D21A636B30
:1045D0000BB1236CD21A0023E66A216A2846B04741
:1045E000421CB4F90C3006D129681D2946D8294A45
:1045F000CA40D60742D500226260D90422692260EF
:1046000004D5421C01D12B6803B96065616B2F6032
:10461000C1B104F14403994202D02846FFF7F0F9F2
:10462000002363630EE0216A01232846B047024657
:10463000501CC7D12B68002BC4D01D2B01D0162BCA
:104640001AD12F6000201EE00F69002FFAD09307C7
:104650000E6808BF4B690F6018BF0023A6EB070860
:104660008B60B8F1000FEDDD216AA66A43463A4639
:104670002846B047002808DCB4F90C3043F040036A
:10468000A3814FF0FF30BDE8F0810744A8EB00089C
:10469000E7E700BF0100402038B50B6905460C462E
:1046A00013B90025284638BD18B1036A0BB9FEF7C7
:1046B00043F9B4F90C30002BF3D0626ED00704D468
:1046C000990502D4A06DFEF730FB28462146FFF77E
:1046D00061FF636EDA070546E4D4A3899B05E1D444
:1046E000A06DFEF723FBDDE770B50C46B1F90E10A7
:1046F000002996B015461E460ADAA18911F08001FC
:1047000013D14FF48062002031602A6016B070BD72
:104710006A4600F047F80028EFDB019901F4704188
:10472000A1F5005359425941EBE700214022EAE745
:104730008B8973B59E0705460C4607D504F14703E0
:10474000236023610123636102B070BD01AB6A463F
:10475000FFF7CAFF009E28463146FFF7C5F9B4F9B6
:104760000C3038B99A05EFD423F0030343F0020369
:10477000A381E3E743F08003A381019B2060C4E9A8
:104780000406002BE0D0B4F90E10284600F01CF807
:104790000028D9D0A38923F0030343F00103A381A8
:1047A000D2E7000038B5074D0023044608461146FD
:1047B0002B60FDF71AFB431C02D12B6803B1236069
:1047C00038BD00BFD003002038B5064D0023044695
:1047D00008462B60FDF70EFB431C02D12B6803B18A
:1047E000236038BDD003002038B5064D00230446B1
:1047F00008462B60FDF702FB431C02D12B6803B176
:10480000236038BDD00300200A44914200F1FF33F9
:1048100000D1704710B511F8014B03F8014F9142D8
:10482000F9D110BD1FB514461A46094B1B68054641
:10483000D8684CB1074B0091CDE9013406492B46AD
:1048400000F042F800F052F8044B1C46F3E700BFBA
:10485000180000205D4E00086A4E0008984E0008BF
:1048600070B5A1FB025434B92946FFF73DF906465D
:1048700028B9304670BD0C2202600026F9E72A46AE
:104880002146FEF7D5F9F4E782B001B901A942B19A
:104890004BB113780B601278101E18BF012002B0C4
:1048A00070471046FBE76FF00100F8E70346084643
:1048B00041B1FF2A04D98A221A604FF0FF307047B5
:1048C0000A700120704700000EB403B5014603AB27
:1048D000054853F8042B00680193FFF743FD02B02D
:1048E0005DF804EB03B070471800002008B50620FF
:1048F00000F02CF80120FDF751FA1F2938B50546C4
:104900000C4604D9162303604FF0FF3038BDC26B4C
:1049100012B152F821304BB9284600F031F8224646
:1049200001462846BDE8384000F018B8012B0AD0EF
:10493000591C03D1162303600120E7E7002142F848
:104940002410204698470020E0E70000024B014673
:104950001868FFF7D2BF00BF1800002038B5074D18
:1049600000230446084611462B60FDF70FFA431C4E
:1049700002D12B6803B1236038BD00BFD0030020F3
:10498000FDF702BA2DE9F047089D0F4604468C4614
:10499000002B48D18A42164661D9B2FA82F34BB154
:1049A000C3F1200201FA03FC20FA02F29E4042EA1F
:1049B0000C0C9C404FEA164EB7B2BCFBFEF1220C29
:1049C0000EFB11CC42EA0C4201FB07F0904209D9E0
:1049D000B21801F1FF3C80F0EE80904240F2EB8093
:1049E00002393244121AA4B2B2FBFEF00EFB1022BE
:1049F00044EA024400FB07F7A74209D9341900F141
:104A0000FF3280F0DA80A74240F2D7803444023887
:104A100040EA0140E41B00211DB1DC400023C5E950
:104A20000043BDE8F0878B4206D90DB1C5E900010E
:104A300000210846BDE8F087B3FA83F1002948D188
:104A4000BB4202D3824200F20781841A67EB030261
:104A500001209446002DE4D0C5E9004CE1E7002A8E
:104A600000F09280B2FA82F3002B40F0A8808A1AFC
:104A70004FEA164E1FFA86FC0121200CB2FBFEF70E
:104A80000EFB172240EA02420CFB07F0904207D9C6
:104A9000B21807F1FF3802D2904200F2E280474696
:104AA000121AA4B2B2FBFEF00EFB102244EA02443A
:104AB0000CFB00FCA44507D9341900F1FF3202D2E7
:104AC000A44500F2CB801046A4EB0C0440EA07405A
:104AD000A2E7C1F120068B4022FA06FC4CEA030C47
:104AE00007FA01F420FA06F3F7404FEA1C49234382
:104AF00000FA01F81FFA8CFEB7FBF9F01C0C09FB59
:104B0000107744EA074400FB0EF7A74202FA01F2CD
:104B10000AD91CEB040400F1FF3A80F09B80A74205
:104B200040F2988002386444E41B9FB2B4FBF9F36E
:104B300009FB134447EA044403FB0EFEA64509D9CA
:104B40001CEB040403F1FF3780F08280A6457FD977
:104B5000023B644443EA0040A4EB0E04A0FB02E7DE
:104B6000BC427346B94663D360D05DB1B8EB030273
:104B700064EB090404FA06F622FA01F31E43CC4062
:104B8000C5E9006400214CE76208480842EAC171A7
:104B90000B0C43EA00438AB242EA0342B3FBF6F14C
:104BA000E407B4463746B6461F23B0FBF6F0D21BE7
:104BB00041EA004161E7614614E7104628E7C3F186
:104BC000200120FA01F29E4027FA01F19F403A436A
:104BD0004FEA164E1FFA86FCB1FBFEF70EFB1710CC
:104BE000110C41EA004107FB0CF8884504FA03F474
:104BF0003AD9711807F1FF3001D288451FD8A1EBCF
:104C00000801B1FBFEF808FB0CF70EFB181192B27D
:104C100042EA0142BA422FD2B21808F1FF31C6D29D
:104C2000BA42C4D2A8F102013244C0E7F0459CD296
:104C3000BEEB020367EB0C070138B94695E7A6EB1C
:104C400008084144B81EB1FBFEF808FB0CF7DCE78E
:104C50003B467FE7504667E70846FBE634440238A8
:104C600032E7023F32441BE7A1EB08013846B1FBB3
:104C7000FEF808FB0CF7C8E7414698E7F8B500BF17
:104C8000F8BC08BC9E467047F8B500BFF8BC08BC2D
:044C90009E46704785
:104C980068656C6C6F206D616B6566696C6500009A
:104CA80068656C6C6F206763632C2025662C202553
:104CB800640A000000000000010203040000000074
:104CC800000000000102030406070809494E4600D7
:104CD800696E66004E414E006E616E0030003031E4
:104CE800323334353637383941424344454600304B
:104CF800313233343536373839616263646566007A
:104D0800496E66696E697479004E614E0052454578
:104D18004E54206D616C6C6F6320737563636565B9
:104D2800646564002F5F5F772F61726D2D6E6F6E03
:104D3800652D656162692D6763632D787061636BAA
:104D48002F61726D2D6E6F6E652D656162692D67BD
:104D580063632D787061636B2F6275696C642D6174
:104D680073736574732F6275696C642F6C696E75E3
:104D7800782D7836342F736F75726365732F6E656F
:104D8800776C69622D63796777696E2F6E65776CCA
:104D980069622F6C6962632F7374646C69622F6433
:104DA800746F612E630042616C6C6F63207375636E
:104DB800636565646564002F5F5F772F61726D2D91
:104DC8006E6F6E652D656162692D6763632D7870FE
:104DD80061636B2F61726D2D6E6F6E652D656162FB
:104DE800692D6763632D787061636B2F6275696CD9
:104DF800642D6173736574732F6275696C642F6CAD
:104E0800696E75782D7836342F736F757263657394
:104E18002F6E65776C69622D63796777696E2F6E7F
:104E280065776C69622F6C6962632F7374646C694F
:104E3800622F6D707265632E6300232D302B200066
:104E4800686C4C00656667454647004300504F5301
:104E58004958002E002C2066756E6374696F6E3A8F
:104E68002000617373657274696F6E202225732246
:104E7800206661696C65643A2066696C6520222544
:104E880073222C206C696E65202564257325730AAE
:104E98000000000005000000190000007D0000006F
:104EA8000080E03779C34143176E05B5B5B893461E
:104EB800F5F93FE9034F384D321D30F94877825AEA
:104EC8003CBF737FDD4F1575000000000000F03F08
:104ED80000000000000024400000000000005940CD
:104EE8000000000000408F40000000000088C34020
:104EF80000000000006AF8400000000080842E4195
:104F080000000000D01263410000000084D79741E0
:104F18000000000065CDCD41000000205FA00242E6
:104F2800000000E876483742000000A2941A6D425B
:104F3800000040E59C30A2420000901EC4BCD6424E
:104F480000003426F56B0C430080E03779C34143F9
:104F580000A0D8855734764300C84E676DC1AB436F
:104F6800003D9160E458E143408CB5781DAF15448D
:104F780050EFE2D6E41A4B4492D54D06CFF0804468
:104F8800F64AE1C7022DB544B49DD9794378EA447D
:104F98000020202020202020202028282828282001
:104FA80020202020202020202020202020202020F9
:104FB8002088101010101010101010101010101061
:104FC8001004040404040404040404101010101051
:104FD800101041414141414101010101010101011B
:104FE800010101010101010101010101101010106D
:104FF80010104242424242420202020202020202ED
:105008000202020202020202020202021010101040
:105018002000000000000000000000000000000068
:105028000000000000000000000000000000000078
:105038000000000000000000000000000000000068
:105048000000000000000000000000000000000058
:105058000000000000000000000000000000000048
:105068000000000000000000000000000000000038
:105078000000000000000000000000000000000028
:105088000000000000000000000000000000000018
:045098000000000014
:08509C00F4B0FF7F01000000E9
:0450A400C10B000834
:0450A8009D0B000854
:1050AC0001000000100000000024F40000000000CB
:1050BC0003000000940200201C00002000000000EF
:1050CC0094020020FC020020640300200000000079
:1050DC0000000000000000000000000000000000C4
:1050EC0000000000000000000000000000000000B4
:1050FC0000000000000000000000000000000000A4
:10510C000000000000000000430000000000000050
:10511C000000000000000000000000000000000083
:10512C000000000000000000430000000000000030
:10513C000000000000000000000000000000000063
:10514C000000000000000000430000000000000010
:10515C000000000000000000000000000000000043
:10516C0000000000000000004300000000000000F0
:10517C000000000000000000000000000000000023
:10518C0000000000000000004300000000000000D0
:10519C000000000000000000000000000000000003
:1051AC0000000000000000004300000000000000B0
:1051BC0000000000000000000000000000000000E3
:1051CC000000000000000000430000000000000090
:1051DC0000000000000000000000000000000000C3
:1051EC000000000000000000AD48000889480008DD
:1051FC0000000000984F00085B4E0008984E000815
:10520C00984E0008984E0008984E0008984E0008DA
:10521C00984E0008984E0008984E0008984E0008CA
:10522C00FFFFFFFFFFFFFFFFFFFFFFFFFFFF000080
:10523C0001004153434949000000000000000000F8
:10524C000000000000000000000000000000000052
:10525C0000004153434949000000000000000000D9
:10526C000000000000000000000000000000000032
:04527C00000000002E
:0400000508001F21AF
:00000001FF
